:020000040800F2
:10000000D008002039020008372D0008D91D00084B
:10001000352D0008470500082D32000800000000BB
:10002000000000000000000000000000DD300008BB
:100030008905000800000000392D0008DF300008A5
:10004000530200085302000853020008530200083C
:10005000530200085302000853020008530200082C
:10006000530200085302000853020008530200081C
:10007000530200085302000853020008530200080C
:100080005302000853020008530200080000000059
:100090000000000000000000000000005302000803
:1000A0005302000889310008530200085302000877
:1000B000530200085302000853020008DD1D000827
:1000C00053020008530200085302000853020008BC
:1000D0005302000853020008530200080000000009
:1000E00053020008530200085302000800000000F9
:1000F00000000000000000000000000053020008A3
:1001000000000000530200085302000853020008D8
:1001100000000000000000000000000000000000DF
:10012000530200085302000853020008530200085B
:100130005302000800000000000000000000000062
:100140000000000000000000000000005302000852
:10015000530200085302000853020008530200082B
:1001600053020008530200080000000000000000D5
:10017000000000000000000000000000000000007F
:100180000000000053020008000000000000000012
:10019000530200085302000800F002F800F03CF897
:1001A0000AA090E8000C82448344AAF10107DA45D2
:1001B00001D100F031F8AFF2090EBAE80F0013F0E8
:1001C000010F18BFFB1A43F001031847803A0000E3
:1001D000A03A0000103A24BF78C878C1FAD8520774
:1001E00024BF30C830C144BF04680C6070470000B1
:1001F0000023002400250026103A28BF78C1FBD830
:10020000520728BF30C148BF0B6070471FB503F0CD
:100210000BFD1FBD10B510BD00F05BF91146FFF7D7
:10022000F5FF03F0DFF900F079F903B4FFF7F2FF0F
:1002300003BC00F081F900000948804709480047E5
:10024000FEE7FEE7FEE7FEE7FEE7FEE7FEE7FEE786
:10025000FEE7FEE704480549054A064B70470000E3
:100260007931000899010008D0020020D008002050
:10027000D0040020D004002053EA020C00F0698072
:100280002DE9F04B4FF00006002B1FBFB3FA83F5AA
:1002900003FA05F424FA05F65E4012BF1643B2FADB
:1002A00082F502FA05F4C5F120051EBF22FA05FC0D
:1002B00044EA0C04203556EA044C4FEA144418BFB3
:1002C000641C4FF000084FF00009904271EB030CE2
:1002D00039D3002919BFB1FA81F701FA07F6B0FA4C
:1002E00080F700FA07F6C7F120071EBF20FA07FCC7
:1002F00046EA0C062037B6FBF4FCA7EB0507103FD7
:1003000007F01F0BCBF120060CFA0BFB2CFA06F6BC
:1003100044BFB3460026202FA4BF5E464FF0000B1B
:100320005BEA060C08BF4FF0010B19EB0B09ABFBA6
:10033000027C48EB0608C01B06FB02CC0BFB03CC7F
:1003400071EB0C01C1E70B46024641464846BDE849
:10035000F08B13B54FF000004FF00001AFF30080B9
:10036000BDE81C40704710B5431C02E010F8011BAB
:1003700071B18107FAD14FF0013202C88C1A8C4357
:1003800014EAC211F9D0C01A0A0603D0C01E10BD6B
:10039000C01A10BD0A0401D0801E10BD0902FCD095
:1003A000401E10BD40EA010370B59B072ED14FF0EF
:1003B0000136042A2AD308C810C99D1B9D43121F69
:1003C00015EAC61517D0D8B2E1B2401A50EA056155
:1003D00010D198B2A1B2401A50EA05410AD123F0D7
:1003E0007F4024F07F41401A50EA052102D1180EC7
:1003F000A0EB146070BDA342DBD018BA21BA8842CA
:1004000001D9012070BD4FF0FF3070BD0AB9002046
:1004100070BD10F8013B11F8014B63B1A3420AD142
:10042000521E08D010F8013B11F8014B1BB1A3423A
:1004300001D1521EEDD1181B70BD4FF000020429EE
:10044000C0F0128010F0030C00F01B80CCF1040C03
:10045000BCF1020F18BF00F8012BA8BF20F8022B37
:10046000A1EB0C0100F00DB85FEAC17C24BF00F8DD
:10047000012B00F8012B48BF00F8012B70474FF00B
:10048000000200B5134694469646203922BFA0E8E4
:100490000C50A0E80C50B1F12001BFF4F7AF0907F0
:1004A00028BFA0E80C5048BF0CC05DF804EB8900E1
:1004B00028BF40F8042B08BF704748BF20F8022B24
:1004C00011F0804F18BF00F8012B7047704770473C
:1004D0007047754600F02CF8AE4605006946534655
:1004E00020F00700854618B020B5FFF7B3FEBDE841
:1004F00020404FF000064FF000074FF000084FF08B
:10050000000B21F00701AC46ACE8C009ACE8C0091B
:10051000ACE8C009ACE8C0098D46704710B5044688
:10052000AFF300802046BDE81040FFF77EBE00001C
:10053000004870476C02002001491820ABBEFEE75E
:10054000260002007047FEE770B50C460546FFF72F
:100550000AFF800701D0012600E000262846FFF7A9
:1005600002FF06EB9000800000220AE0D11702EBA8
:10057000917121F003014B59511AC900CB40A3548A
:10058000521C8242F2DB70BD70470000002229B18C
:1005900001291AD002291BD04FF440720E490B6872
:1005A00023F440730B600B6813430B600A6822F05E
:1005B000F8020A600A68022303EBC00002430A60E3
:1005C000086840F48030086070474FF48072E5E7B7
:1005D0004FF40072E2E70000103C0240134801684B
:1005E00089050FD5016821F400710160016841F4AB
:1005F00000610160016821F400610160016841F45B
:1006000000710160016849050FD5016821F480611E
:100610000160016841F480510160016821F480515A
:100620000160016841F4806101607047003C024054
:1006300008490A6822F440720A600A6842F004021B
:100640000A600A684FF4803343EA002002430A60DC
:1006500070470000103C0240064A136823F44073C0
:10066000136013681360136843F001031360017093
:1006700070470000103C0240094910B50C6824F492
:1006800040740C600C6844F440740C600C6844F0D6
:1006900001040C600260BFF36F8F436010BD000067
:1006A000103C0240074A136823F440731360136838
:1006B00043F480731360136843F0010313600180F7
:1006C00070470000103C0240074A136823F440734F
:1006D0001360136843F400731360136843F001035D
:1006E0001360016070470000103C02401C4908681C
:1006F000C2061C4805D5C26942F01002C261102230
:100700000A600A68920605D5C26942F00802C26111
:1007100020220A600A68520605D5C26942F0040226
:10072000C26140220A600A68120605D5C26942F019
:100730000202C26180220A600A68D20506D5C26937
:1007400042F00102C2614FF480720A600A689207A7
:1007500005D5C26942F02002C261022008607047DC
:100760000C3C02404C02002070B5114904460020A8
:10077000C86100F075FA06460E4D09E0601C07D00E
:1007800024B100F06DFA801BA04201D9032070BD96
:100790002868C003F2D42868C00701D0012028606F
:1007A000286810F4F970F2D0FFF7A0FF012070BDA7
:1007B0004C0200200C3C024008C8521E08C192B2F4
:1007C000FAD270472DE9F8431746884605460024BB
:1007D00000F036F9284600F02BF8064605EB8700B6
:1007E00000F026F8014611480022891B026002220F
:1007F000491C8660C0E90312694600F087F848B9D1
:100800000EE000BF58F8242000232946022000F003
:10081000D9F818B100F0C6F8BDE8F883641C2D1DA6
:10082000BC42EFDB00F0C4F80020F5E738020020FE
:100830000021A0F1006343F6FF7293422BD3174BC4
:100840000344934201D2012125E0154B0344934216
:1008500001D202211FE0134B0344934201D2032132
:1008600019E0114A4FF6FF7302449A4201D2042163
:1008700011E00E4A83180E4A934201D205210AE084
:100880000C4B0344934201D2062104E00A4B184466
:10089000904200D2072108467047000000C0FFF7D1
:1008A0000080FFF70040FFF70000FFF70000FEF7B1
:1008B000FFFF01000000FCF70000FAF790F8351088
:1008C000022903D08021416501207047052180F86D
:1008D00035100068016821F00101016000207047B7
:1008E00090F835007047000070B5044600F0B8F984
:1008F0000546601C02D004480078044400F0B0F9BA
:10090000401BA042FAD370BD240000202DE9F0471F
:10091000044622480F46017E01290AD00121804663
:1009200001764CF250394846FFF71EFF020003D013
:100930002FE00220BDE8F0874FF0FF3038602068DC
:10094000174D012801D0A6681CE0207C6168FFF7E4
:100950006FFE4846FFF708FF0246286820F00400B3
:10096000286014E0217C3046FFF710FE4846FFF770
:10097000FBFE0200286820F0FA00286001D03E60EB
:1009800005E0761CD4E902100844B042EAD8FFF72B
:1009900025FE002188F818101046CBE74C020020F5
:1009A000103C02400148C069704700004C02002022
:1009B0000348016841F000410160002070470000D9
:1009C000103C02402DE9F0471B4E05461446307E90
:1009D0001F468946012808D0012030764CF2503855
:1009E0004046FFF7C1FE18B114E00220BDE8F087D1
:1009F0009DB1012D16D0022D19D022463B46484606
:100A0000FFF73AFE4046FFF7AFFE0C490A6822F0B6
:100A100001020A6000213176E8E7E1B24846FFF7BB
:100A20001BFEEFE7A1B24846FFF73CFEEAE721468E
:100A30004846FFF749FEE5E74C020020103C024023
:100A4000074900200A68002A09DA054A054B0C3AD2
:100A50001360054B13600968002900DA0120704714
:100A6000103C024023016745AB89EFCD2DE9F84FDB
:100A7000DFF8B8A10022012403254FF00F090AF185
:100A8000040BAAF1040E00BF0B6804FA02F633400F
:100A9000B34273D10F7907F00307012F01D0022F62
:100AA00016D187684FEA420805FA08FC27EA0C07C6
:100AB000D1F80CC00CFA08FC4CEA070CC0F808C0CE
:100AC0004768B7430E79C6F3001696403E4346602A
:100AD0000E79F643B6070DD0C768560005FA06FC36
:100AE00027EA0C07D1F808C00CFA06FC4CEA070C00
:100AF000C0F80CC00E7906F00306022E10D1D608FD
:100B000000EB8608D8F8206057074FEAD76C09FA3F
:100B10000CF7BE430F6907FA0CF73743C8F820708B
:100B200006684FEA420C05FA0CF7BE430F7907F04E
:100B3000030707FA0CF7374307604E6816F4403F87
:100B40006DD03B4E376847F480473760366822F0F7
:100B5000030706F480460096364E07EB060CDCF8D9
:100B6000086897073F0F09FA07F826EA0806DFF832
:100B7000C880404503D14FF000081EE04FE0DFF889
:100B8000BC80404502D14FF0010816E0DFF8B0808C
:100B9000404502D14FF002080FE0DFF8A880404541
:100BA00002D14FF0030808E0DFF89C80404502D1F5
:100BB0004FF0040801E04FF0070808FA07F848EA88
:100BC0000608CCF80888DAF800605746D1F804C067
:100BD0009E435FEACC2C00D51E433E60DBF80060EC
:100BE0005F46D1F804C09E435FEA8C2C00D51E43BB
:100BF0003E60DEF800607746D1F804C09E435FEAAD
:100C00008C3C00D51E433E60084F083F3E68D1F83B
:100C100004C09E435FEACC3C00D51E433E60521C9C
:100C2000102AFFF431AFBDE8F88F0000083C014006
:100C300044380240003001400000024000040240FD
:100C400000080240000C0240001002400069084009
:100C500000D0012070470AB1816170470904FBE7A9
:100C600001488068704700002400002070477047EA
:100C70002DE9F047026800215368C66A90F83E40AB
:100C800090F83D50102C12D0402C10D0046C002C49
:100C90007DD05469E443A6077AD4DE43B60577D401
:100CA000036C03B19169BDE8F04701F0A9BC9769F5
:100CB00051694FF42A0CC9435FEAC1784FF02A49C1
:100CC00004D066452AD04E4528D010E0DE43B60554
:100CD0000DD4C16A614501D1012103E0C16A4945D2
:100CE00001D10821C162BDE8F04701F0F3BB0E0756
:100CF00016D4DE43B60513D4416CC9B21161416B01
:100D000009B1C96B29B9816B002907D0C96B0029CA
:100D100004D00068416841F400614160BDE8F0879B
:100D20008E0706D4DE43B60503D4BDE8F04701F0D4
:100D300045BBFE43526876074FEA02521DD4002A93
:100D4000ECDB0A0608D4DA43520505D4490705D579
:100D5000BDE8F04701F0D6BA4907DFD4D943890589
:100D6000DCD4212D05D0402CD8D1BDE8F04701F0CE
:100D7000F7BBBDE8F04701F083BA002ACEDB4A0694
:100D80000BD4DA43520508D4490708D501E00DE039
:100D90000EE0BDE8F04701F0B1B94907BED4D94330
:100DA0008905BBD4BDE8F04701F03FB9916970E710
:100DB000E10606D4D943890503D4BDE8F04701F024
:100DC00043BC2821212D27D0292D25D0650655D4B7
:100DD000DD436D0552D4640752D590F83D30448D03
:100DE000002C9BD01269446A2270426A521C4262F3
:100DF000428D521E4285428D002A8FD12A2B8DD1E1
:100E00000268536823F4806353602222026380F8EF
:100E10003D1000F0E3F981E7250623D4DD436D059D
:100E200020D4640720D590F83D30448D002CF2D0BA
:100E3000446A24781461426A521C4262428D521EF6
:100E40004285428D002AE6D1292BE4D102685368FD
:100E500023F4806353602122026380F83D1000F088
:100E6000BEF95BE76107D6D4D9438905D3D4418D58
:100E70000029D0D0416A097811610AE06107CAD41B
:100E8000D9438905C7D4418D0029C4D01169426A6C
:100E90001170416A491C4162418D491E41853DE7FF
:100EA0007047000070B5040025D094F83D0000257F
:100EB00020B984F83C50204600F054F9242084F8EE
:100EC0003D002068016821F001010160206801688F
:100ED00041F4004101602068016821F40041016093
:100EE00000F0B2FA4D4A6168914201D84C4900E0E5
:100EF0004C49884201D2012070BD4B492368B0FBA8
:100F0000F1F15E6826F03F060E435E60636893422F
:100F100006D94FF4967359434FF47A73B1FBF3F14A
:100F20002368491C1E6A26F03F0631431962616836
:100F3000914210D84900401EB0FBF1F2521CC2F39E
:100F40000B02042A01D2042022E0B0FBF1F0401C85
:100F5000C0F30B001CE0A268F2B301EBC10303EB8A
:100F60000116431EB3FBF6F35B1C43F480431B05E1
:100F700049D092B301EBC10202EB0111401EB0FB5C
:100F8000F1F0401CC0F30B0040F4804040F40040FE
:100F90002168CA694CF6FF739A431043C861D4E9CB
:100FA000071001432068026822F0C002114301606B
:100FB000D4E9030101432068826848F2FF339A4371
:100FC00011438160D4E9050108432168CA6822F011
:100FD000FF021043C86001E00EE016E020680168DF
:100FE00041F0010101602564202084F83D00256363
:100FF00084F83E50002070BD01EB4106431EB3FB58
:10100000F6F35B1CB3E70120C2E701EB4101401E90
:10101000B0FBF1F0401CC0F30B00B7E7A086010065
:1010200080841E0000093D0040420F007047704759
:10103000704700002DE9F84F1F4690468A46044647
:10104000DDF82890FFF70CFE054694F83D002028B7
:101050007FD11923012240492046009501F0C8FBA9
:10106000002876D194F83C00012872D0012084F841
:101070003C0020680168C90703D1016841F0010103
:1010800001602068016821F400610160212084F87A
:101090003D00102084F83E0000262664C4F8248019
:1010A0006785608D20852D48E0622B464A46514673
:1010B000204601F097F890B9206841698069009056
:1010C00036E02A464946204601F011FC50B1206C1A
:1010D000042804D12068016841F4007101600120F6
:1010E000BDE8F88F606A216800780861606A401C7A
:1010F0006062618D491E6185218D491E89B22185FD
:1011000022685369DB435B070BD451B1007810614F
:10111000606A401C6062608D401E6085208D401EAC
:1011200020852A464946204601F03CFB0028CED1C6
:10113000208D0028C5D154F83D0B016841F40071A1
:101140000160202004F81E09E67766770020C7E7D3
:10115000FFE70220C4E70000020010000000FFFFCC
:101160007047704710B586B0044614216846FFF7F3
:1011700086F917492068884228D11648002102685C
:1011800042F002020260006800F002000590C020F8
:1011900000901220CDE90101032003900420049067
:1011A00069460D48FFF762FC0A481030016841F4B7
:1011B000001101600068002200F400100590114643
:1011C0001F2000F075F81F2000F064F806B010BD75
:1011D000005400403038024000040240704770471D
:1011E0000248816802781144816070472400002021
:1011F0000B4810B5016841F400710160016841F4C9
:1012000080610160016841F480710160032000F099
:101210006FF80F2000F006F800F024F8002010BD51
:10122000003C024070B50D4D04464FF47A712878A9
:10123000B1FBF0F00A490968B1FBF0F000F07DFC69
:1012400048B9102C07D200222146501E00F030F879
:1012500000206C6070BD012070BD000024000020E3
:10126000300000200A4808B5016841F4804101605F
:10127000006800F4804000900548001F016841F0BC
:1012800080510160006800F08050009008BD0000AF
:1012900044380240002809DB00F01F020121914080
:1012A0004009800000F1E020C0F800117047000004
:1012B000F0B40E4B1B680C46C3F30223C3F10705C1
:1012C000042D00D90425191D072901D2002300E0AF
:1012D000DB1E012606FA05F1491E214099409E4079
:1012E000761E16403143F0BC01F0A1BF0CED00E0CA
:1012F000064900F0070208684FF6FF03184040EA6D
:101300000220034A10430860704700000CED00E023
:101310000000FA052DE9F0470E46050065D0DFF81C
:101320001481D8F80000F7B200F00700B04207D2ED
:1013300088F80070D8F8000000F00700B04254D1DF
:1013400028683D4C810712D5400703D5206840F43A
:10135000E05020602878000703D5206840F4604002
:1013600020602068A96820F0F000084320602878F9
:10137000C0072DD0304968680839012812D00228EA
:1013800013D0032811D00968890700292DDA2168B4
:1013900021F0030101432160FFF762FC814641F225
:1013A000883A0EE009688903EFE709688901ECE7EC
:1013B000FFF756FCA0EB0901514502D90320BDE817
:1013C000F0872068696800F00C00B0EB810FEFD166
:1013D000D8F80010404601F00701B14207D9077064
:1013E000006800F00700B04201D00120E7E728784C
:1013F000400705D52068E96820F4E05008432060E4
:101400002878000706D52068296920F4604040EA62
:10141000C100206000F028F82168084AC1F30311D8
:10142000515CC8400649086006480068FFF7FAFEAC
:101430000020C4E7003C024008380240323C00086B
:101440003000002028000020044805490068096891
:10145000044AC1F38221515CC8407047300000202B
:1014600008380240423C0008154810B5006810F0EA
:101470000C02144813D04110042A0FD0082A0ED1B0
:101480000F4C241F2268236802F03F025B0207D53D
:101490002068C0F38810A0FB010106E0084610BDDB
:1014A0002168C1F38811A1FB00010023FEF7E4FECF
:1014B0002168C1F30141491C4900B0FBF1F010BDA6
:1014C000083802400024F4002DE9F84F04006ED0E3
:1014D0002078DFF84C93C007A9F104054AD009F140
:1014E00004000168C1F38101012908D00068C0F33C
:1014F000810002280AD1D9F80000400206D52868E8
:10150000800337D560680028E1D033E06068B0F52B
:10151000803F10D0B0F5A02F286810D020F4803084
:101520002860286820F4802028606068A8B1FFF750
:1015300097FB06460DE0286840F48030F4E740F45D
:1015400080202860F7E700BFFFF78AFB801B642834
:1015500073D828688003F7D50CE0FFF781FB0646B7
:1015600005E000BFFFF77CFB801B6428F0D82868EB
:101570008003F7D42078DFF8AC8280074FF0000AB0
:101580003ED5A748001D016811F00C0F08D0006877
:10159000C0F3810002280BD1D9F80000400207D423
:1015A0002868800716D5E068012800D112E033E1F1
:1015B000E068B8B10120C8F80000FFF751FB06460B
:1015C00005E000BFFFF74CFB801B0228C0D828684D
:1015D0008007F7D52868216920F0F80040EAC100AB
:1015E00028600DE0C8F800A0FFF73AFB064604E0CB
:1015F000FFF736FB801B02281FD828688007F7D426
:101600002078000722D5864F87486169703771B10D
:1016100001210160FFF724FB064604E0FFF720FBF1
:10162000801B022809D838688007F7D50EE0C0F87B
:1016300000A0FFF715FB064605E082E0FFF710FB70
:10164000801B02287DD838688007F7D420784007AF
:1016500068D5DFF8CCB100270BF13C0BDBF80000BC
:10166000C0000BD4DBF8001041F08051CBF8001023
:10167000DBF80000012700F0805000906B4E3068CE
:10168000C00510D4306840F480703060FFF7E8FA8D
:10169000009005E0FFF7E4FA0099401A022850D8BC
:1016A0003068C005F6D55E4EA0686C3601280FD0B4
:1016B0000528306810D020F001003060306820F03C
:1016C00004003060A068B8B1FFF7CAFA00900FE0DC
:1016D000306840F00100F4E740F004003060F7E7C4
:1016E000FFF7BEFA0099411A41F28830814266D86C
:1016F00030688007F4D50EE0FFF7B2FA009007E0FB
:10170000FFF7AEFA0099411A41F28830814256D86B
:1017100030688007F4D42FB1DBF8001021F080513D
:10172000CBF80010A069C8B33D49091D0968C1F391
:10173000810102294AD00228504607D0C8F860002B
:1017400000E03CE0FFF78CFA04463BE04746C8F86F
:101750006000FFF785FA064605E000BFFFF780FA54
:10176000801B02282BD828688001F7D4D4E9070110
:101770000843A16A2E4A490802EB0141626A41EA24
:101780008211084394F82C1040EA0161C9F8001056
:1017900001203866FFF764FA044606E03EE000BF29
:1017A000FFF75EFA001B022809D828688001F7D5E8
:1017B00034E000BFFFF754FA001B022802D90320CF
:1017C000BDE8F88F28688001F4D427E00128F7D01D
:1017D000D9F80000E26900F4800191421CD1226A2C
:1017E00000F03F01914217D147F6C071626A014093
:1017F000B1EB821F10D1A26A4FF0FF3300F44031E9
:1018000003EB5202B1EB024F06D194F82C1000F01A
:101810007060B0EB016F01D00120D1E70020CFE76D
:101820000438024000004742800E474200700040EA
:101830000000FFFF70B5040009D0606A002540B1C8
:1018400025616561A56294F8510040B10CE001206A
:1018500070BD6068B0F5827FF4D0E561F2E784F88E
:101860005050204600F044F8022084F851002068CF
:10187000016821F040010160A088218900F4827094
:1018800001F404410843A18901F400610843217C6B
:1018900001F002010843217D01F001010843218B81
:1018A00001F400710843217F01F03801084394F8E6
:1018B000201001F080010843218D01F400510843FC
:1018C00021680860A069042101EA104094F82410FE
:1018D00001F010010843216848602068C16921F4C3
:1018E0000061C1616565012084F85100002070BD70
:1018F00010B586B0044614216846FEF7C0FD1349B2
:101900002068884220D112480021026842F48052A7
:101910000260006800F4805005900D481438026899
:1019200042F002020260006800F0020005903820D8
:1019300000900220CDE901010320039005200490CE
:1019400069460448FFF792F806B010BD0030014028
:1019500044380240000402402DE9F84F044690F854
:10196000500000270A9E1D4692468B464FF0010903
:1019700001280ED0012084F85000FFF771F980464D
:1019800094F85100616801280CD0B1F5827F07D12D
:1019900002E00220BDE8F88FA16809B9042801D04F
:1019A0000227C2E0BBF1000F27D0BAF1000F24D00C
:1019B0001DB394F85100042802D0052084F851008A
:1019C00000206065C4F838A0E587A587C4F830B06A
:1019D000E586A5862064606420680168490603D412
:1019E000016841F040010160E068B0F5006F606897
:1019F00005D0E8B3012D46D07FE0012795E008B17E
:101A0000012D39D1206B21680088C860206B801CB3
:101A10002063E08E401EE0862EE020688168890702
:101A20000FD5E18E69B1B9F1010F0AD1216B098897
:101A3000C160206B801C2063E08E401EE0864FF06A
:101A4000000920688168C9070CD0E18F51B1C068D6
:101A5000A16B0880A06B801CA063E08F401EE08714
:101A60004FF00109FFF7FCF8A0EB0800B04200E0DE
:101A700009E001D3701C50D1E08E0028CDD1E08F59
:101A80000028CAD13FE0206B216800780873206BE2
:101A9000401C2063E08E401EE0862EE020688168B6
:101AA00089070FD5E18E69B1B9F1010F0AD1216B18
:101AB00009780173206B401C2063E08E401EE08695
:101AC0004FF0000920688168C9070CD0E18F51B13F
:101AD000C068A16B0870A06B401CA063E08F401E23
:101AE000E0874FF00109FFF7BBF8A0EB0800B04218
:101AF00002D3701C01D010E07EB1E08E0028CDD161
:101B0000E08F0028CAD142463146204601F05EFAF5
:101B100028B101272020606507E0032705E0A068C1
:101B200018B92068C16880680090012084F85100CD
:101B3000002084F8500038462CE710B5401EB0F164
:101B4000807F01D3012010BD4FF0E02460610F21A0
:101B5000601701F06CFB0020A061072020610020CD
:101B600010BD7047704710B5040003D094F83D00D5
:101B700010B107E0012010BD002084F83C00204691
:101B800000F01EF8022084F83D00211D206801F0BD
:101B900001FB012084F8460084F83E0084F83F00F1
:101BA00084F8400084F8410084F8420084F843003F
:101BB00084F8440084F8450084F83D00002010BDFE
:101BC00008B500680B49884212D10B48016841F4FE
:101BD000003101600068002200F4003000901146DE
:101BE0001920FFF765FBBDE808401920FFF752BB3D
:101BF00008BD0000004401404438024090F83D1008
:101C0000012901D001207047022180F83D100168B0
:101C1000CA6842F00102CA6000680E4988420ED0CC
:101C2000B0F1804F0BD00C49884208D00B49884254
:101C300005D00B49884202D00A49884204D1816804
:101C400001F00701062903D0016841F0010101609C
:101C500000207047000001400004004000080040E0
:101C6000000C004000400140704770B50446006819
:101C700001694FF00005C943890715D4C168C943FC
:101C8000890711D4E91E016101202077206880694D
:101C90008007204602D0FFF7E7FF04E000F098F845
:101CA000204600F096F8257720680169C943490766
:101CB00017D4C168C943490713D46FF00401016107
:101CC000022020772068806910F4407F204602D0EF
:101CD000FFF7CAFF04E000F07BF8204600F079F837
:101CE000257720680169C943090716D4C168C9432B
:101CF000090712D46FF008010161042020772068E1
:101D0000C0698007204602D0FFF7AEFF04E000F074
:101D10005FF8204600F05DF8257720680169C94327
:101D2000C90617D4C168C943C90613D46FF010019E
:101D30000161082020772068C06910F4407F2046A8
:101D400002D0FFF791FF04E000F042F8204600F0D7
:101D500040F8257720680169C943C90708D1C168DF
:101D6000C943C90704D1891E0161204600F032F839
:101D700020680169C943090609D4C168C943090635
:101D800005D46FF0800101612046FFF7EAFE20686C
:101D90000169C943490609D4C168C943490605D444
:101DA0006FF040010161204600F015F820680169DC
:101DB000C94389060BD4C168C943890607D46FF0AB
:101DC000200101612046BDE87040FFF7CBBE70BD29
:101DD0007047704770477047FEE700000148FEF704
:101DE00047BF00004400002038B5806B002190F808
:101DF0003D202B4B46F2A8141B68B3FBF4F3C3EB56
:101E0000C30303EB830300933BB15B1E00930368A2
:101E10001B689B0505D5009BF6E7036C43F0200388
:101E20000364436B03B1D963836B03B1D963036864
:101E30001C6824F480641C604185436B03B1196500
:101E4000836B03B1196503681C6824F001041C60EE
:101E500090F83D402023602C0BD0282434EA020265
:101E60000FD080F83D3080F83E1000BFFFF718F823
:101E700038BD80F83D3080F83E100164FEF7F6FE74
:101E800038BD0268136843F00103136002681368E9
:101E900043F480631360016380F83D40E6E700008F
:101EA0003000002070B5044690F83D0094F83E10D4
:101EB000102901D0402906D1222804D121680A68BE
:101EC00022F400620A60282131EA00024FF0000586
:101ED0004FF0200626D021684968090505D46028FE
:101EE00003D084F83D6084F83E5025632068416843
:101EF000090537D5416821F400614160606B90F8B5
:101F000035203C49012A11D00165606BFEF7D6FCF3
:101F100038B32068016821F00101016084F83D6058
:101F2000606B1CE0256384F83D10DFE7A06B016562
:101F3000A06BFEF7C3FCA0B120684169C943490604
:101F400005D40069616A0870606A401C606220689C
:101F5000016821F00101016084F83D60A06B016D12
:101F6000884710E094F83D10602910D04169C943BA
:101F7000490605D40069616A0870606A401C6062A5
:101F80002046FEF78DFF206CC1071CD115E084F8B8
:101F90003D6025644169C943490605D40069616A09
:101FA0000870606A401C60622068016821F00101CD
:101FB00001602046FEF75AFEE5E7810703D441079A
:101FC00001D4000704D52068416821F4E061416034
:101FD00094F83D00216C49070BD5282809D1064803
:101FE000E062256384F83D6084F83E502046FFF7A8
:101FF0001DF870BDE91D00080000FFFF01684A6977
:10200000D24352050FD46FF480624A61002140F838
:10201000301F202242738173026942F00402026180
:102020000173012070470020704710B5C26A438DCC
:102030000168042B06D0438D032B08D0438D022B5F
:102040001DD012E04A6822F480624A600CE04B68BE
:1020500023F480634B60042A06D0022A04D001686E
:102060000A6822F480620A6001680969426A117094
:10207000416A491C4162418D491E418510BD012ABA
:1020800030D0102A2ED0042A30D0022A2ED00A684E
:1020900042F400720A6001680969426A1170416A7B
:1020A000491C4162428D521E4285026812690A70C3
:1020B000416A491C4162418D491E418501684A6857
:1020C00022F440724A60202180F83D1090F83E20B2
:1020D0000021402A80F83E100CD012210163FEF747
:1020E000A6FF10BD0A6822F48062D3E70A6842F4B2
:1020F0008062CFE70163FFF733F810BD38B590F881
:102100003D1022290FD1418D03290DD9016809699C
:10211000426A1170416A491C4162418D491E4185E4
:10212000418D032906D038BDC26A022A02D0012996
:1021300006D029B10068416821F48061416038BD52
:10214000274946F2A81300220968B1FBF3F101EB1D
:102150008101009101682023009C641E009422D01C
:102160000C68A405F8D40C6824F480640C60016841
:102170004C6824F4E0644C6001680969446A217089
:10218000416A491C4162418D491E418580F83D30BC
:1021900090F83E1080F83E2040291DD012210163A6
:1021A000FEF745FF38BD046C44F0200404644C681D
:1021B00024F4E0644C6001680969446A2170416A52
:1021C000491C4162418D491E418580F83D3080F8AF
:1021D0003E20FEF765FE38BD0263FEF7C1FF38BD45
:1021E00030000020F8B50446C06A1E460D4617466A
:1021F000082807D0012805D010F5803F02D0206BB9
:10220000122804D12068016841F4807101601346EE
:1022100000224FF001112046009600F0E9FA40B18B
:1022200020680068C00502D54FF4007020640320C8
:10223000F8BD2069B0F5804F0ED00620216800EA75
:10224000D51040F0F000086133463A460B4920466D
:1022500000F002FB78B902E005F0FE0000E0E8B211
:1022600021680861054933463A46891F204600F037
:10227000F3FA0028DCD00120F8BD000008000100BE
:1022800010B5C26A90F83D1021290BD1418D51B192
:10229000416A026809781161416A491C4162418DB5
:1022A000491E418510BD20230021082A13D0202A71
:1022B00011D012F5803F0ED00268546824F4E06417
:1022C00054601122026380F83E1080F83D3000BF58
:1022D000FEF7AEFE10BD0268546824F4E06454605A
:1022E0000268146844F400741460016380F83D309F
:1022F00090F83E2080F83E10402AE9D1FEF731FFE9
:1023000010BD000010B590F83D1090F83E30C26A44
:10231000048DB4B1212903D0402B11D122290FD132
:10232000418DE1B390F83E10402942D0416A0268E5
:1023300009781161416A491C4162418D491E4185FC
:1023400010BD2129E8D120230021082A13D0202AFA
:1023500011D012F5803F0ED00268546824F4E06476
:1023600054601122026380F83E1080F83D3000BFB7
:10237000FEF75EFE10BD0268546824F4E064546009
:102380000268146844F400741460016380F83D30FE
:1023900090F83E2080F83E10402AE9D100E002E0AB
:1023A000FEF7DFFE10BD0068416821F480614160E6
:1023B00010BDBDE8104000F0D3B8000078B590F82B
:1023C0003E50C26A036B90F83D6000240168222EE3
:1023D0007AD1066D0EB9402D76D0056D1DB905690F
:1023E000B5F5404F09D0458D05B3468D384D012ECA
:1023F0000ED0438D022B3AD05DE04A698A69009283
:102400000A6842F480720A60016D491C016578BD5A
:10241000AA4213D10A6822F480620A6001684A68FD
:10242000120503D50A6822F4806216E04A698A69B7
:1024300000920A6842F400720A6039E0082A10D05B
:10244000202A0ED0122B0AD0042A03D0022A01D04F
:10245000102AE7D10A6842F480620A6024E0012A67
:10246000E0D00A6822F480620A600168DEE7042A8C
:1024700021D0022A1FD0102A1DD00B6823F48063BC
:102480000B6001680B6843F400630B6001684B68E4
:102490001B0509D5AA4212D0012A10D0082A0ED055
:1024A000102A0CD0202A0AD001684A698969009153
:1024B000046578BD08E00B6843F48063E5E74A688B
:1024C00042F480524A60EFE7486988690090F0E77B
:1024D0000000FFFF90F83E10402910D00169B1F5CF
:1024E000804F19D0016DA9B3016D012910D1416C44
:1024F0005FF0F10201F4407142EAD11106E0016D92
:102500000029416C05D0C9B241F0010100680161A8
:10251000704701F0FE01F9E790F83D102129416C68
:1025200009D0C9B241F0010102681161416B29B1C2
:10253000C96B49B902E001F0FE01F5E7816B0029A2
:10254000E6D0C96B0029E3D00068416841F400611E
:1025500041607047FFE7416CF02201F44071CBE726
:1025600010B590F83D10026D22B3026D012A2FD0F4
:10257000026D022A1DD122292FD0428D0AB12129B4
:1025800033D0428D002A14D1212912D101684A6822
:1025900022F4E0624A6001680A6842F400720A604C
:1025A00000210163202280F83D2080F83E10FEF7D4
:1025B000D8FD10BDC16C0129816C02D0C1F3072187
:1025C00008E00268C9B21161016D891C016510BD86
:1025D000816CC9B20268116104E001680A6842F4C2
:1025E00080720A60016D491CF0E7416A026809784F
:1025F0001161416A491C4162418D491E418510BDEE
:1026000038B50C4690F83D200021282595430268F6
:102610000B4605D051699169009180F83C3038BD76
:10262000556825F480655560E243540700D50121C3
:10263000120601D5828900E0028B80F83C3092B20C
:10264000FEF715FB38BD0000F8B590F83D60044674
:102650000068416821F4E06141602068002541691B
:102660000091016841F0010101602068016821F4D6
:102670008061016020684168090520D5474F222EFE
:1026800048D02A2E46D0616B096849686185618D02
:1026900019B1216C41F004012164416821F4006109
:1026A0004160606BFEF71CF9012808D0606B07657C
:1026B000606BFEF703F910B1606B016D8847608DA8
:1026C00008B320684169C943490708D40069616AB1
:1026D0000870606A401C6062608D401E60852068E2
:1026E0004169C943490608D40069616A0870606A93
:1026F000401C6062608D401E6085608D18B1206C4A
:1027000040F004002064206C00B32046BDE8F8408F
:10271000FFF7C8BBA16B096849686185618D19B174
:10272000216C41F004012164416821F400614160A1
:10273000A06BFEF7D5F80128C1D0A06B0765A06B90
:10274000FEF7BCF80028BAD0A06BB6E72A2E06D157
:102750002563282084F83D002046FEF73FFD94F8CD
:102760003D10202028290DD0216B222901D0222EB6
:1027700007D1256384F83D0084F83E502046FEF7DB
:102780002DFDF8BD0649E162256384F83D0084F81B
:102790003E502046FEF74AFCF8BD0000E91D000847
:1027A0000000FFFF70B516460D4604460DE02046BA
:1027B000FFF724FC08B1012070BD681C05D0FEF7AE
:1027C0004FFA801BA84207D835B120684069C04342
:1027D0004007ECD4002070BD002044F8300F2021C9
:1027E0006173A073216941F0200121612073E2E748
:1027F0002DE9F0471E4690460D460446C1F30747B3
:10280000DDF8209008E0701C06D0FEF729FAA0EB56
:102810000900B0420FD876B12068012F18D0806926
:1028200025EA00000004000C14D000214145EAD044
:102830000020BDE8F087002044F8300F20216173AC
:10284000A073216941F02001216120730120F0E78C
:102850004069E5E70121E9E72DE9F0479A4691460D
:102860000E46044600254FF02008C1F3074725E037
:1028700020684069C043400514D42068016841F4D1
:102880000071016021686FF480604861256384F8FD
:102890003D8084F83E50206C40F00400206484F8B1
:1028A0003C501FE0B9F1FF3F08D0FEF7D9F9A0EB8B
:1028B0000A0149450CD8B9F1000F09D02068012F51
:1028C00013D0806926EA00000004000C0BD0CFE78B
:1028D00044F8305F84F80D80A573206940F0200033
:1028E000206125730120BDE8F0874069EAE770B5F3
:1028F00016460D4604460DE02046FFF77FFB08B163
:10290000012070BD681C05D0FEF7AAF9801BA84203
:1029100007D835B120684069C0430006ECD40020D8
:1029200070BD002044F8300F20216173A07321692D
:1029300041F0200121612073E2E710B5142000F07E
:10294000BCF8800705D10321BDE81040142000F039
:10295000D6B810BD7CB50446002529460D2000F0F0
:1029600064F9932020702020607001A82346009015
:10297000022219460C2000F0CEF8010009D1225C99
:10298000401C5540C0B20428F9D3205CA84200D0B6
:10299000022108467CBD2DE9F0410E46074615464A
:1029A0000421052000F036F880210A2000F0A7F865
:1029B000002405E0395D092000F037F9641CE4B219
:1029C000B442F7D30321012000F02FF9FF240520A2
:1029D00000F073F8641E14F0FF0401D04007F6D530
:1029E000222000F06AF82870212000F066F8687054
:1029F000BDE8F08170B505460146262000F064F878
:102A0000040003D12846FFF7A5FF044600F01CF898
:102A1000204670BD70B50C46054600F04EF820EA21
:102A200004012846BDE8704000F0FFB810B5002250
:102A3000835C8C5CA34201D0022010BD521CD2B238
:102A4000042AF5D3002010BD0EB550208DF80400E7
:102A500000208DF805000DF10602022101A8FFF704
:102A60009AFF02A801AB0090042219460C2000F046
:102A700052F80EBD10B500F03EF88D212A2000F06E
:102A8000D4F83E212B2000F0D0F81E212D2000F09C
:102A9000CCF800212C2000F0C8F87021262000F08E
:102AA000C4F84021152000F0C0F83D21112000F0AD
:102AB000BCF8BDE81040FFF740BF7E2101EA4000AE
:102AC00040F0800000F052BA7CB50C460546072164
:102AD0000D2000F0AAF8257001A8234600900122DD
:102AE00019460C2000F017F818B9BDF80410102989
:102AF00000D002207CBD0F21012000F096B870B5F7
:102B00000C460546FFF7D9FF40EA04012846BDE818
:102B1000704000F08AB82DE9FF5F00270226DDF83B
:102B200038A015468B468146B8460C2805D0B9F129
:102B30000E0F05D11227102001E0772730208046A4
:102B400047F08001022000F070F880210420FFF798
:102B500061FF80210A20FFF7D2FF0021012000F051
:102B600064F8002406E01BF80410092000F05DF86A
:102B7000641CA4B2AC42F6D34946012000F055F8DB
:102B8000B9F10C0F03D180210D20FFF7B8FF4FF4EE
:102B9000FA650420FFF791FF6D1E2D0404462D0CED
:102BA00004D0E00702D114EA080FF2D080210D20F2
:102BB000FFF730FF35B10620FFF77FFF10F01B0F46
:102BC00004D0022604B03046BDE8F09F00263C4009
:102BD000E00700D00126B9F10C0FF3D10A20FFF76E
:102BE0006CFF04460C20FFF768FF10F007004FEA67
:102BF000C40104D008390844AAF8000001E0AAF88A
:102C0000001024B1102C04D91024002503E0012465
:102C1000FBE7002506E00920FFF74FFF0399485521
:102C20006D1CADB2A542F6D3CCE77E2202EA40008D
:102C300000F0B4B92DE9F04387B014216846FDF7E0
:102C40001EFC28480024016841F0800101600168F1
:102C500001F080010591016841F001010160016806
:102C600001F001010591016841F00801016001686E
:102C700001F008010591016841F00201016000685E
:102C8000DFF8648000F0020005900022F021404649
:102C9000FDF7E1FFDFF854904FF43A570022394630
:102CA0004846FDF7D8FF48F20F0001258DE83100B6
:102CB00069464046FDF7DAFEF0200226CDE9000520
:102CC000CDE9024669464046FDF7D0FE00970396DF
:102CD000CDE9015469464846FDF7C8FE07B0BDE896
:102CE000F08300003038024000000240000C024037
:102CF0000F4810B50D4901604FF482714160002109
:102D00008160C1604FF400720161C0E905120822C0
:102D1000C0E90721416281620A21C162FEF78AFD92
:102D2000002801D072B6FEE710BD0000003001405F
:102D300098000020FEE7FEE7704700002DE9F04113
:102D40006048FFF757FE00287ED104225E495F48A5
:102D5000FDF732FD5E495C48FDF7F6FB5C495948DA
:102D6000FFF764FE00255B4F5B4C4FF400660028C4
:102D700053D05A495348FFF759FE022864D12068BE
:102D8000401C206000F0CCFB0121002000F0D4FBAF
:102D900053A000F01DFC0021012000F0CDFB54A049
:102DA00000F016FC4FF48068012241463846FDF7DA
:102DB00052FF012231463846FDF74DFF322000F028
:102DC000CFFA002231463846FDF745FF322000F0A9
:102DD000C7FA012231463846FDF73DFF962000F044
:102DE000BFFA002231463846FDF735FF0122314651
:102DF0003846FDF730FF4FF4877000F0B1FA00223B
:102E000031463846FDF727FF002241463846FDF798
:102E100022FF2068052832D04EE000F081FB00211F
:102E2000084600F089FB37A000F0D2FB002101200A
:102E300000F082FB37A000F0CBFB01223146384680
:102E40002560FDF708FF00E03AE0C82000F088FAAE
:102E5000002231463846FDF7FEFE4FF49660FDF73E
:102E600043FD012251023846FDF7F5FE01225103D0
:102E70003846FDF7F0FEBDE8F04100F08FBE4FF49C
:102E80007A70FDF731FD00F04BFB0021084600F0A1
:102E900053FB24A000F09CFB0021012000F04CFB20
:102EA00024A000F095FB4EF6602000F059FA25486A
:102EB0002560056024480560BDE8F04100F030BBA6
:102EC000BDE8F0811C000020C001002000C0000807
:102ED00020000020000C0240180000200C00002000
:102EE0004143434553532044454E49454421000046
:102EF000504C454153452054525920414741494E79
:102F000000000000414343455353204752414E5473
:102F10004544000057454C434F4D4520484F4D45D3
:102F20000000000053414920544845203E203520F0
:102F30004C414E005741495420464F522031204DBC
:102F4000494E000000000020040000200EB50123BF
:102F50008DF804000A20009002AA01A90248FEF799
:102F6000FBFC9DF808000EBD9800002070B50A4DCE
:102F70000446002280212846FDF76DFE2046FFF71B
:102F8000E5FF0020FFF7E2FF0446012280212846EA
:102F9000FDF761FE204670BD000C024070B50A4C82
:102FA0000E460546002280212046FDF754FE2846A5
:102FB000FFF7CCFF3046FFF7C9FF2046BDE8704061
:102FC00001228021FDF747BE000C024038B50446BF
:102FD0001248134B0068B0FBF3F04FF47A73584378
:102FE00000906068B0F5827F0DD10B460092002200
:102FF0008021204600F016F870B1606D40F020008E
:103000006065032038BD009830B1401E00902068F4
:103010008068C0430006F6D5002038BD300000208F
:1030200000366E012DE9F8431E4691468846044657
:10303000089DFDF715FE401B351AFDF711FE0746EA
:1030400025480068C0F3CB30684338E0701C37D0A7
:10305000FDF706FEC01BA84203D215B1009860B36D
:103060002CE02068416821F0E00141606068B0F523
:10307000827F0BD1A068B0F5004F02D0B0F5806F11
:1030800004D12068016821F040010160A06AB0F518
:10309000005F09D12068016821F4005101602068B7
:1030A000016841F400510160012084F851000020C2
:1030B00084F850000320BDE8F8830025401E0090EE
:1030C0002068816838EA010004D000214945BDD15B
:1030D0000020F0E70121F9E7300000207047FEF7FB
:1030E0007FB8000030B593B030216846FDF7C7F9CE
:1030F00014210CA8FDF7C3F91D480025016841F013
:1031000080510160006800F08050119019480168FA
:1031100041F4404101600068022400F440401190F5
:1031200001200090000401908001CDE906400420B8
:1031300008906420CDE9090403200B906846FEF74F
:10314000C3F908B172B6FEE70CA90F2081E831007F
:103150004FF4A0500F904FF48050109003210CA812
:10316000FEF7D8F8002801D072B6FEE713B030BDE4
:1031700040380240007000400248016841F470018C
:103180000160704788ED00E00148FEF76EBD000069
:10319000F0000020F0B502681D4B1E4C9F031E4D31
:1031A0001E4E984207D0B84205D0A04203D0A84294
:1031B00001D0B04204D122F0700C4A6842EA0C02FD
:1031C000984210D0B8420ED0A0420CD0A8420AD0EB
:1031D000B04208D0124CA04205D0124CA04202D0FE
:1031E000114CA04203D122F44074CA6822434C69B6
:1031F00022F08002224302608A68C2620A68826208
:10320000984201D10969016301214161F0BD0000CB
:10321000000001400004004000080040000C004095
:10322000004001400044014000480140FEE709071A
:10323000090E002804DB00F1E02080F8001470473C
:1032400000F00F0000F1E02080F8141D704700002E
:1032500010B500F065F90021084600F06DF92AA0CC
:1032600000F0B6F910212C4800F012FB00F082F8B3
:1032700010222A492848FDF795F890B100F050F93E
:103280000121002000F058F925A000F0A1F910213B
:103290002148FDF7D2F8BDE810404FF4FA60FDF781
:1032A00023BB00F03DF90021084600F045F920A0BD
:1032B00000F08EF94FF49660FDF716FB10211648CA
:1032C000FDF7BBF81021144800F0E2FA1248FDF7B0
:1032D0004AF8800701D0012400E000240E48FDF7E1
:1032E00042F8174904EB900082B208600A49154879
:1032F000FDF768FA0A20FDF7F7FABDE81040102143
:103300000548FDF79AB8000043555252454E5420E7
:10331000504153533A00000034000020B001002017
:103320004143434553532044454E49454421000001
:103330004348414E474520504153533A2000000036
:10334000100000200081000804480021026851623A
:103350000068416A0A29FCD370470000F000002091
:1033600010B50446002302E0FFF7EEFF5B1CA3420A
:10337000FADB10BD064810B50088064982B206483F
:10338000FDF71AFABDE8104004490248FDF7DCB821
:10339000100000203801002000810008B00100204A
:1033A00070B500F0BDF80021084600F0C5F837A060
:1033B00000F00EF910213A4800F06AFAFFF7DAFF40
:1033C000102238493648FCF7EDFF374C0025B0B1E4
:1033D0002068401C206000F0A3F80121002000F0CC
:1033E000ABF832A000F0F4F80021012000F0A4F8BE
:1033F00032A000F0EDF8206805281FD03BE000F077
:103400008FF80421002000F097F831A000F0E0F8D8
:103410000021012000F090F830A000F0D9F82560DC
:10342000334C012251022046FDF715FC01225103C5
:103430002046FDF710FC00F0B1FB20E04FF47A705D
:10344000FDF752FA00F06CF80021084600F074F81D
:1034500028A000F0BDF80021012000F06DF82AA09E
:1034600000F0B6F84EF66020FFF77AFF2A48256094
:1034700005602A4805604FF49660FDF735FABDE80F
:10348000704010210648FCF7D8BF0000454E544557
:10349000522050415353574F52443A2000000000ED
:1034A00034000020B00100201800002041434345B3
:1034B00053532044454E494544210000504C45415A
:1034C00053452054525920414741494E00000000C5
:1034D000434F525245435421000000002D2D2D2012
:1034E000554E4C4F434B4544202D2D2D00000000E0
:1034F000000C02404E48415020534149203E2035A7
:10350000204C414E000000005741495420464F5284
:103510002031204D494E0000000000200400002012
:1035200010B5802000F014F80024202000F030F8BE
:10353000641C462CF9DB10BD10B1012805D102E056
:1035400041F0800101E041F0C001C8B2AFF300805A
:103550001CB500F0F00141F00C028DF8042041F0A0
:10356000080100018DF8051040F00C018DF80610DF
:1035700040F008008DF8070064200090042301AAA1
:103580004E210248FDF756FD1CBD000044000020FE
:103590001CB500F0F00141F00D028DF8042041F05F
:1035A000090100018DF8051040F00D018DF806109D
:1035B00040F009008DF8070064200090042301AA60
:1035C0004E210248FDF736FD1CBD000044000020DE
:1035D00010B5044602E0641CFFF7DAFF20780028EB
:1035E000F9D110BDFDF704FEFFF77CFDFFF722FBCC
:1035F000864885490025016042F21071C0E9011535
:10360000491EC0E903158561FEF7ADFA08B172B62F
:10361000FEE7FFF76DFB7D487D49AC3801607D49D1
:10362000C0E901154FF48041C0E90351456185614E
:10363000C5610562FDF736FC08B172B6FEE7734856
:10364000FEF7DCFAFFF716FAFFF76AFF00210846DB
:10365000FFF772FF70A0FFF7BBFF02210120FFF709
:103660006BFF71A0FFF7B4FF4FF4FA60FDF73CF970
:103670006649714E012248313046FDF79DF8634896
:103680006E4C48300068401C2FD1FFF749FF0021E5
:103690000846FFF751FF6AA0FFF79AFF5B48102129
:1036A000BC3800F0F5F85948BC38FCF75CFE8007E0
:1036B00001D0012700E000275448BC38FCF753FE36
:1036C00007EB9000514982B22061BC393046FDF7CA
:1036D00079F80120FDF708F9584904220C315C48BB
:1036E000FDF770F80120FDF7FFF84849534EBC394B
:1036F000DFF860910D604D608D60AA464FF0010BC0
:1037000014364FF40068CD60C4F808B0C4F800B0B7
:10371000C4F804B0FFF704FF01210020FFF70CFFFD
:103720004DA0FFF755FF00210120FFF705FF4EA038
:10373000FFF74EFF0025052700F0ECF87055232811
:1037400034D0012815D0012241464846FDF783FABE
:103750003220FFF705FE002241464846FDF77BFA7E
:1037600039460120FFF7E8FE705DFFF711FF6D1C81
:103770007F1C6420FDF7B8F8042DDDDBFFF7D0FED9
:103780002E4802223AA11430FCF70CFE18B32B4845
:10379000032238A11430FCF705FE48B32748042261
:1037A00035A11430FCF7FEFD30B327E00122474677
:1037B00041464D464846FDF74EFA3220FFF7D0FD10
:1037C000002239462846FDF746FAD7E7FFF7E8FD1D
:1037D0000A20FDF789F820680028F7D10EE00021C3
:1037E0000846FFF7A9FE26A0FFF7F2FEFFF7A6FAAC
:1037F00060680028F3D101E0FFF72AFD0A20C4F831
:1038000014A0FDF771F87FE700440140F0000020AC
:1038100000540040A086010057454C434F4D4520C1
:10382000544F205549540000434520464143554CD0
:103830005459205E2D5E0000008100080000002029
:10384000434149204D41544B4841553A2000000026
:1038500000C00008000C02402A2A2A57454C434F5A
:103860004D452A2A2A0000004D4F44453A200000C9
:103870002A2300002A2A23002A2A2A2300000000E3
:10388000494E53455254204944204341524400007C
:103890002DE9F0410F460024DFF870804FF40065F9
:1038A0001B4E20E000F036F808F8040023281ED054
:1038B000012815D0012229463046FDF7CCF93220E7
:1038C000FFF74EFD002229463046FDF7C4F9214698
:1038D0000120FFF731FE18F80400FFF759FE641CC1
:1038E0006420FDF701F8BC42DCDBBDE8F081012279
:1038F00029463046FDF7AFF93220FFF731FD294662
:103900003046BDE8F0410022FDF7A5B934000020A3
:10391000000C024010B5A04C002280212046FDF78B
:103920009AF9012240212046FDF795F90122202134
:103930002046FDF790F9012210212046FDF78BF972
:1039400008212046FDF782F900287CD0042120467A
:10395000FDF77CF9002877D002212046FDF776F9A3
:10396000002872D001212046FDF770F900286DD0A3
:10397000012280212046FDF76EF9002240212046D9
:10398000FDF769F9012220212046FDF764F90122A3
:1039900010212046FDF75FF908212046FDF756F972
:1039A000002876D004212046FDF750F9002871D078
:1039B00002212046FDF74AF900286CD0012120465B
:1039C000FDF744F9002867D0012280212046FDF749
:1039D00042F9012240212046FDF73DF90022202135
:1039E0002046FDF738F9012210212046FDF733F972
:1039F00008212046FDF72AF900286ED00421204630
:103A0000FDF724F9002869D002212046FDF71EF9B0
:103A1000002874D001212046FDF718F900286FD046
:103A2000012280212046FDF716F90122402120467F
:103A3000FDF711F9012220212046FDF70CF90022A3
:103A40001021204603E028E02FE036E03DE0FDF7BE
:103A500002F908212046FDF7F9F8002871D0042169
:103A60002046FDF7F3F800286CD002212046FDF730
:103A7000EDF8002867D001212046FDF7E7F800287F
:103A800006D101212046FDF7E1F80028F9D04420B5
:103A900010BD24E02BE034E03BE008212046FDF798
:103AA000D5F80028F9D03120F2E704212046FDF7AF
:103AB000CDF80028F9D03220EAE702212046FDF7B0
:103AC000C5F80028F9D03320E2E701212046FDF7B0
:103AD000BDF80028F9D04120DAE722E029E00821EA
:103AE0002046FDF7B3F80028F9D03420D0E70421B0
:103AF0002046FDF7ABF80028F9D03520C8E723E0D1
:103B00002AE002212046FDF7A1F80028F9D036204E
:103B1000BEE701212046FDF799F80028F9D04220A0
:103B2000B6E708212046FDF791F80028F9D03720A4
:103B3000AEE704212046FDF789F80028F9D03820A7
:103B4000A6E711E018E01FE002212046FDF77EF80D
:103B50000028F9D039209BE701212046FDF776F8AF
:103B60000028F9D0432093E708212046FDF76EF89E
:103B70000028F9D02A208BE704212046FDF766F8BB
:103B80000028F9D0302083E702212046FDF75EF8B7
:103B90000028F9D023207BE70000024010B542F254
:103BA0001070FFF7DDFB154C00224FF4005120464A
:103BB000FDF751F84FF4FA70FFF7D2FB00226115C0
:103BC0002046FDF748F8FFF7ABFC02210020FFF785
:103BD000B3FC0BA0FFF7FCFC01210846FFF7ACFC8F
:103BE0000BA0FFF7F5FC4FF49660FCF77DFE0C4947
:103BF000002008600B49086010BD0000000C024066
:103C0000474F4F4420425945205E2D5E0000000082
:103C100053454520594F5520414741494E0000002A
:103C200000000020040000204FF04070E1EE100A78
:103C300070470000000000000000010203040607B6
:103C40000809000000000102030400006C3C0008A9
:103C50000000002034000000D4010008A03C00084F
:103C6000340000209C080000F00100080100000062
:103C7000010000000100000063939BAC0000000005
:103C80000000000000000000000000000000000034
:103C90000100000010000000000000000024F400FB
:040000050800019955
:00000001FF
