:020000040800F2
:10000000D806002039020008B7120008D50F0008F2
:10001000B51200082F040008651300080000000056
:10002000000000000000000000000000BB120008FB
:100030003104000800000000B9120008BD120008D9
:10004000530200085302000853020008530200083C
:10005000530200085302000853020008530200082C
:10006000530200085302000853020008530200081C
:10007000530200085302000853020008530200080C
:100080005302000853020008530200080000000059
:100090000000000000000000000000005302000803
:1000A00053020008530200085302000853020008DC
:1000B00053020008530200085302000853020008CC
:1000C00053020008530200085302000853020008BC
:1000D0005302000853020008530200080000000009
:1000E00053020008530200085302000800000000F9
:1000F00000000000000000000000000053020008A3
:1001000000000000530200085302000853020008D8
:1001100000000000000000000000000000000000DF
:10012000530200085302000853020008530200085B
:100130005302000800000000000000000000000062
:100140000000000000000000000000005302000852
:10015000530200085302000853020008530200082B
:1001600053020008530200080000000000000000D5
:10017000000000000000000000000000000000007F
:100180000000000053020008000000000000000012
:10019000530200085302000800F002F800F03CF897
:1001A0000AA090E8000C82448344AAF10107DA45D2
:1001B00001D100F031F8AFF2090EBAE80F0013F0E8
:1001C000010F18BFFB1A43F0010318478416000003
:1001D000A4160000103A24BF78C878C1FAD8520794
:1001E00024BF30C830C144BF04680C6070470000B1
:1001F0000023002400250026103A28BF78C1FBD830
:10020000520728BF30C148BF0B6070471FB501F0CF
:100210000DFB1FBD10B510BD00F0CFF81146FFF764
:10022000F5FF01F04FF900F0EDF803B4FFF7F2FF2E
:1002300003BC00F0F5F80000094880470948004772
:10024000FEE7FEE7FEE7FEE7FEE7FEE7FEE7FEE786
:10025000FEE7FEE704480549054A064B70470000E3
:100260005513000899010008D8000020D806002086
:10027000D8020020D802002053EA020C00F0698066
:100280002DE9F04B4FF00006002B1FBFB3FA83F5AA
:1002900003FA05F424FA05F65E4012BF1643B2FADB
:1002A00082F502FA05F4C5F120051EBF22FA05FC0D
:1002B00044EA0C04203556EA044C4FEA144418BFB3
:1002C000641C4FF000084FF00009904271EB030CE2
:1002D00039D3002919BFB1FA81F701FA07F6B0FA4C
:1002E00080F700FA07F6C7F120071EBF20FA07FCC7
:1002F00046EA0C062037B6FBF4FCA7EB0507103FD7
:1003000007F01F0BCBF120060CFA0BFB2CFA06F6BC
:1003100044BFB3460026202FA4BF5E464FF0000B1B
:100320005BEA060C08BF4FF0010B19EB0B09ABFBA6
:10033000027C48EB0608C01B06FB02CC0BFB03CC7F
:1003400071EB0C01C1E70B46024641464846BDE849
:10035000F08B13B54FF000004FF00001AFF30080B9
:10036000BDE81C4070474FF0000200B513469446AC
:100370009646203922BFA0E80C50A0E80C50B1F1FD
:100380002001BFF4F7AF090728BFA0E80C5048BF11
:100390000CC05DF804EB890028BF40F8042B08BFAF
:1003A000704748BF20F8022B11F0804F18BF00F8AB
:1003B000012B7047704770477047754600F02CF866
:1003C000AE4605006946534620F00700854618B042
:1003D00020B5FFF73FFFBDE820404FF000064FF08B
:1003E00000074FF000084FF0000B21F00701AC466A
:1003F000ACE8C009ACE8C009ACE8C009ACE8C00989
:100400008D46704710B50446AFF300802046BDE826
:100410001040FFF70ABF000000487047740000203A
:1004200001491820ABBEFEE7260002007047FEE738
:100430007047000070B5044600F008F90546601CDE
:1004400002D004480078044400F000F9401BA042A8
:10045000FAD370BD000000202DE9F84FDFF8B8A1F5
:100460000022012403254FF00F090AF1040BAAF121
:10047000040E00BF0B6804FA02F63340B34273D196
:100480000F7907F00307012F01D0022F16D18768DB
:100490004FEA420805FA08FC27EA0C07D1F80CC01D
:1004A0000CFA08FC4CEA070CC0F808C04768B743D0
:1004B0000E79C6F3001696403E4346600E79F64329
:1004C000B6070DD0C768560005FA06FC27EA0C07E8
:1004D000D1F808C00CFA06FC4CEA070CC0F80CC0B6
:1004E0000E7906F00306022E10D1D60800EB86081E
:1004F000D8F8206057074FEAD76C09FA0CF7BE43CB
:100500000F6907FA0CF73743C8F8207006684FEAFE
:10051000420C05FA0CF7BE430F7907F0030707FA00
:100520000CF7374307604E6816F4403F6DD03B4EE2
:10053000376847F480473760366822F0030706F4CF
:1005400080460096364E07EB060CDCF808689707E5
:100550003F0F09FA07F826EA0806DFF8C880404589
:1005600003D14FF000081EE04FE0DFF8BC804045AB
:1005700002D14FF0010816E0DFF8B080404502D10B
:100580004FF002080FE0DFF8A880404502D14FF09D
:10059000030808E0DFF89C80404502D14FF00408D2
:1005A00001E04FF0070808FA07F848EA0608CCF817
:1005B0000888DAF800605746D1F804C09E435FEA25
:1005C000CC2C00D51E433E60DBF800605F46D1F8BE
:1005D00004C09E435FEA8C2C00D51E433E60DEF8CB
:1005E00000607746D1F804C09E435FEA8C3C00D59A
:1005F0001E433E60084F083F3E68D1F804C09E434A
:100600005FEACC3C00D51E433E60521C102AFFF42A
:1006100031AFBDE8F88F0000083C0140443802408B
:100620000030014000000240000402400008024087
:10063000000C0240001002400069084000D0012078
:1006400070470AB1816170470904FBE7014880687F
:10065000704700000000002070B5040025D094F819
:100660003D00002520B984F83C50204600F04EF9AA
:10067000242084F83D002068016821F00101016018
:100680002068016841F4004101602068016821F49C
:100690000041016000F094FA4D4A6168914201D82E
:1006A0004C4900E04C49884201D2012070BD4B49C1
:1006B0002368B0FBF1F15E6826F03F060E435E60F2
:1006C0006368934206D94FF4967359434FF47A7393
:1006D000B1FBF3F12368491C1E6A26F03F06314343
:1006E00019626168914210D84900401EB0FBF1F2D6
:1006F000521CC2F30B02042A01D2042022E0B0FBF8
:10070000F1F0401CC0F30B001CE0A268F2B301EB57
:10071000C10303EB0116431EB3FBF6F35B1C43F46A
:1007200080431B0549D092B301EBC10202EB0111DA
:10073000401EB0FBF1F0401CC0F30B0040F48040C1
:1007400040F400402168CA694CF6FF739A43104395
:10075000C861D4E9071001432068026822F0C00292
:1007600011430160D4E9030101432068826848F223
:10077000FF339A4311438160D4E90501084321689E
:10078000CA6822F0FF021043C86001E00EE016E0E4
:100790002068016841F0010101602564202084F88F
:1007A0003D00256384F83E50002070BD01EB4106FA
:1007B000431EB3FBF6F35B1CB3E70120C2E701EB7A
:1007C0004101401EB0FBF1F0401CC0F30B00B7E745
:1007D000A086010080841E0000093D0040420F00F9
:1007E0002DE9F84F1F4690468A460446DDF82890CA
:1007F000FFF72CFF054694F83D0020287FD11923F0
:10080000012240492046009500F070FC002876D176
:1008100094F83C00012872D0012084F83C00206844
:100820000168C90703D1016841F001010160206836
:10083000016821F400610160212084F83D0010204E
:1008400084F83E0000262664C4F824806785608D05
:1008500020852D48E0622B464A465146204600F04E
:10086000D1FB90B9206841698069009036E02A4642
:100870004946204600F0B9FC50B1206C042804D150
:100880002068016841F4007101600120BDE8F88F23
:10089000606A216800780861606A401C6062618D4E
:1008A000491E6185218D491E89B2218522685369BF
:1008B000DB435B070BD451B100781061606A401CC8
:1008C0006062608D401E6085208D401E20852A4616
:1008D0004946204600F0E4FB0028CED1208D0028B8
:1008E000C5D154F83D0B016841F40071016020202E
:1008F00004F81E09E67766770020C7E7FFE70220C5
:10090000C4E70000020010000000FFFF10B586B031
:10091000044614216846FFF726FD134920688842E3
:1009200020D112480021026842F0020202600068F1
:1009300000F002000590C02000901220CDE90101D6
:10094000032003900420049069460948FFF784FDC2
:1009500006481030016841F400110160006800F49D
:100960000010059006B010BD005400403038024021
:100970000004024002488168027811448160704797
:10098000000000200B4810B5016841F400710160BF
:10099000016841F480610160016841F48071016087
:1009A000032000F061F80F2000F006F800F024F8B2
:1009B000002010BD003C024070B50D4D04464FF4C0
:1009C0007A712878B1FBF0F00A490968B1FBF0F0C0
:1009D00000F0ECFA48B9102C07D200222146501E34
:1009E00000F022F800206C6070BD012070BD000096
:1009F000000000200C0000200A4808B5016841F4FE
:100A000080410160006800F4804000900548001FAC
:100A1000016841F080510160006800F08050009052
:100A200008BD000044380240F0B40E4B1B680C4671
:100A3000C3F30223C3F10705042D00D90425191DB2
:100A4000072901D2002300E0DB1E012606FA05F18A
:100A5000491E214099409E40761E16403143F0BC0D
:100A600000F081BC0CED00E0064900F007020868C8
:100A70004FF6FF03184040EA0220034A1043086083
:100A8000704700000CED00E00000FA052DE9F0478A
:100A90000E46050065D0DFF81481D8F80000F7B2E3
:100AA00000F00700B04207D288F80070D8F80000C4
:100AB00000F00700B04254D128683D4C810712D5A0
:100AC000400703D5206840F4E050206028780007F4
:100AD00003D5206840F4604020602068A96820F0B9
:100AE000F000084320602878C0072DD0304968689E
:100AF0000839012812D0022813D0032811D0096820
:100B0000890700292DDA216821F0030101432160C2
:100B1000FFF79CFD814641F2883A0EE0096889039F
:100B2000EFE709688901ECE7FFF790FDA0EB090109
:100B3000514502D90320BDE8F0872068696800F0BC
:100B40000C00B0EB810FEFD1D8F80010404601F057
:100B50000701B14207D90770006800F00700B042F2
:100B600001D00120E7E72878400705D52068E9682B
:100B700020F4E050084320602878000706D520685C
:100B8000296920F4604040EAC100206000F028F8A4
:100B90002168084AC1F30311515CC8400649086046
:100BA00006480068FFF708FF0020C4E7003C024049
:100BB00008380240361800080C000020040000200D
:100BC0000448054900680968044AC1F38221515C60
:100BD000C84070470C000020083802404618000842
:100BE000154810B5006810F00C02144813D04110DD
:100BF000042A0FD0082A0ED10F4C241F2268236824
:100C000002F03F025B0207D52068C0F38810A0FB0A
:100C1000010106E0084610BD2168C1F38811A1FB5F
:100C200000010023FFF728FB2168C1F30141491CA3
:100C30004900B0FBF1F010BD083802400024F40078
:100C40002DE9F84F04006ED02078DFF84C93C007F0
:100C5000A9F104054AD009F104000168C1F381013A
:100C6000012908D00068C0F3810002280AD1D9F810
:100C70000000400206D52868800337D56068002848
:100C8000E1D033E06068B0F5803F10D0B0F5A02F20
:100C9000286810D020F480302860286820F4802054
:100CA00028606068A8B1FFF7D1FC06460DE028680F
:100CB00040F48030F4E740F480202860F7E700BF7C
:100CC000FFF7C4FC801B642873D828688003F7D51D
:100CD0000CE0FFF7BBFC064605E000BFFFF7B6FCE3
:100CE000801B6428F0D828688003F7D42078DFF8C8
:100CF000AC8280074FF0000A3ED5A748001D01686E
:100D000011F00C0F08D00068C0F3810002280BD14D
:100D1000D9F80000400207D42868800716D5E0689B
:100D2000012800D112E033E1E068B8B10120C8F831
:100D30000000FFF78BFC064605E000BFFFF786FCCE
:100D4000801B0228C0D828688007F7D52868216949
:100D500020F0F80040EAC10028600DE0C8F800A0CB
:100D6000FFF774FC064604E0FFF770FC801B0228C6
:100D70001FD828688007F7D42078000722D5864F2F
:100D800087486169703771B101210160FFF75EFC2E
:100D9000064604E0FFF75AFC801B022809D8386891
:100DA0008007F7D50EE0C0F800A0FFF74FFC06461D
:100DB00005E082E0FFF74AFC801B02287DD83868F6
:100DC0008007F7D42078400768D5DFF8CCB100273A
:100DD0000BF13C0BDBF80000C0000BD4DBF800107B
:100DE00041F08051CBF80010DBF80000012700F043
:100DF000805000906B4E3068C00510D4306840F4CD
:100E000080703060FFF722FC009005E0FFF71EFCC9
:100E10000099401A022850D83068C005F6D55E4EB9
:100E2000A0686C3601280FD00528306810D020F05B
:100E300001003060306820F004003060A068B8B174
:100E4000FFF704FC00900FE0306840F00100F4E789
:100E500040F004003060F7E7FFF7F8FB0099411A13
:100E600041F28830814266D830688007F4D50EE0C0
:100E7000FFF7ECFB009007E0FFF7E8FB0099411A51
:100E800041F28830814256D830688007F4D42FB1BF
:100E9000DBF8001021F08051CBF80010A069C8B336
:100EA0003D49091D0968C1F3810102294AD0022880
:100EB000504607D0C8F8600000E03CE0FFF7C6FBF2
:100EC00004463BE04746C8F86000FFF7BFFB064614
:100ED00005E000BFFFF7BAFB801B02282BD828686B
:100EE0008001F7D4D4E907010843A16A2E4A4908D2
:100EF00002EB0141626A41EA8211084394F82C1026
:100F000040EA0161C9F8001001203866FFF79EFB36
:100F1000044606E03EE000BFFFF798FB001B0228F6
:100F200009D828688001F7D534E000BFFFF78EFBB1
:100F3000001B022802D90320BDE8F88F2868800131
:100F4000F4D427E00128F7D0D9F80000E26900F4D2
:100F5000800191421CD1226A00F03F01914217D1D9
:100F600047F6C071626A0140B1EB821F10D1A26ADC
:100F70004FF0FF3300F4403103EB5202B1EB024F6C
:100F800006D194F82C1000F07060B0EB016F01D026
:100F90000120D1E70020CFE704380240000047429B
:100FA000800E4742007000400000FFFF10B5401E59
:100FB000B0F1807F01D3012010BD4FF0E0246061CB
:100FC0000F21601700F0CFF90020A06107202061F9
:100FD000002010BDFEE701684A69D24352050FD4D4
:100FE0006FF480624A61002140F8301F2022427372
:100FF0008173026942F004020261017301207047AB
:1010000000207047F8B50446C06A1E460D461746D4
:10101000082807D0012805D010F5803F02D0206BAA
:10102000122804D12068016841F4807101601346E0
:1010300000224FF001112046009600F057F840B111
:1010400020680068C00502D54FF4007020640320BA
:10105000F8BD2069B0F5804F0ED00620216800EA67
:10106000D51040F0F000086133463A460B4920465F
:1010700000F070F878B902E005F0FE0000E0E8B298
:1010800021680861054933463A46891F204600F029
:1010900061F80028DCD00120F8BD00000800010044
:1010A00070B516460D4604460DE02046FFF793FF47
:1010B00008B1012070BD681C05D0FFF7C7FA801B7E
:1010C000A84207D835B120684069C0434007ECD436
:1010D000002070BD002044F8300F20216173A07300
:1010E000216941F0200121612073E2E72DE9F047F9
:1010F0001E4690460D460446C1F30747DDF8209092
:1011000008E0701C06D0FFF7A1FAA0EB0900B0427E
:101110000FD876B12068012F18D0806925EA000029
:101120000004000C14D000214145EAD00020BDE8A5
:10113000F087002044F8300F20216173A0732169EB
:1011400041F02001216120730120F0E74069E5E7CB
:101150000121E9E72DE9F0479A4691460E460446FB
:1011600000254FF02008C1F3074725E020684069BB
:10117000C043400514D42068016841F40071016047
:1011800021686FF480604861256384F83D8084F8AD
:101190003E50206C40F00400206484F83C501FE076
:1011A000B9F1FF3F08D0FFF751FAA0EB0A0149451A
:1011B0000CD8B9F1000F09D02068012F13D0806935
:1011C00026EA00000004000C0BD0CFE744F8305FA3
:1011D00084F80D80A573206940F0200020612573FC
:1011E0000120BDE8F0874069EAE770B516460D4674
:1011F00004460DE02046FFF7EEFE08B1012070BD69
:10120000681C05D0FFF722FA801BA84207D835B129
:1012100020684069C0430006ECD4002070BD002067
:1012200044F8300F20216173A073216941F020013F
:1012300021612073E2E7000070B586B01421684692
:10124000FFF791F819480024016841F0800101601E
:10125000016801F080010591016841F00101016020
:10126000016801F001010591016841F0020101608E
:1012700000680F4E00F0020005900022F021304679
:10128000FFF7DFF90F2001258DE831006946304670
:10129000FFF7E2F8F0200090CDE9015469463046AE
:1012A0000394FFF7D9F806B070BD00003038024053
:1012B00000000240FEE7FEE770477047FFF75ABBA9
:1012C00030B593B030216846FFF74DF814210CA8D3
:1012D000FFF749F81D480024016841F08051016082
:1012E000006800F0805011901948016841F44041B5
:1012F00001600068022500F4404011900120009038
:10130000000401908001CDE90650082008904FF4B8
:10131000C870099004200A900B906846FFF790FC73
:1013200008B172B6FEE70F20CDE90C054FF48050EE
:10133000CDE90E4003210CA81094FFF7A7FB00286D
:1013400001D072B6FEE713B030BD00004038024055
:10135000007000400248016841F47001016070476C
:1013600088ED00E0FEE70907090E002804DB00F124
:10137000E02080F80014704700F00F0000F1E0203A
:1013800080F8141D704710B5802000F051F800243B
:10139000202000F06DF8641C462CF9DB10BD10B560
:1013A0003220FFF747F8302000F042F80520FFF721
:1013B00041F8302000F03CF80120FFF73BF83020E6
:1013C00000F036F80A20FFF735F8202000F030F85A
:1013D0000A20FFF72FF8282000F02AF80120FFF755
:1013E00029F8082000F024F80120FFF723F8012055
:1013F00000F01EF80120FFF71DF80120FFF71AF892
:10140000062000F015F80120FFF714F8BDE81040A1
:101410000C2000F00DB810B1012805D102E041F018
:10142000800101E041F0C001C8B200F001B8000045
:101430001CB500F0F00141F00C028DF8042041F0E1
:10144000080100018DF8051040F00C018DF8061020
:1014500040F008008DF8070064200090042301AAE2
:101460004E210248FFF7BCF91CBD0000100000200F
:101470001CB500F0F00141F00D028DF8042041F0A0
:10148000090100018DF8051040F00D018DF80610DE
:1014900040F009008DF8070064200090042301AAA1
:1014A0004E210248FFF79CF91CBD000010000020EF
:1014B00010B5044602E0641CFFF7DAFF207800282C
:1014C000F9D110BDFFF75EFAFFF7FAFEFFF7B4FEA1
:1014D000254824494FF4804201602449416000219D
:1014E0008160C0E9031241618161C1610162FFF75E
:1014F000B3F808B172B6FEE7FFF751FFFFF743FFFD
:1015000000210846FFF787FF19A0FFF7D1FF02214E
:101510000120FFF780FF1AA0FFF7CAFF4FF4FA601F
:10152000FEF788FFFFF72FFF00210846FFF773FF44
:1015300017A0FFF7BDFF0C4D5435002400F032F822
:101540002855012807D021460120FFF764FF285DB8
:10155000FFF78EFF641CC820FEF76CFF102CEDDB3C
:10156000EBE700000054004010000020A0860100BE
:1015700057454C434F4D4520544F2055495400008A
:10158000434520464143554C5459205E2D5E000092
:10159000454E5445522050415353574F52443A20E0
:1015A0000000000010B5A04C002280212046FFF76B
:1015B00048F8012240212046FFF743F8012220216C
:1015C0002046FFF73EF8012210212046FFF739F8A8
:1015D00008212046FFF730F800287CD0042120465F
:1015E000FFF72AF8002877D002212046FFF724F8D9
:1015F000002872D001212046FFF71EF800286DD088
:10160000012280212046FFF71CF8002240212046BD
:10161000FFF717F8012220212046FFF712F80122D8
:1016200010212046FFF70DF808212046FFF704F8A7
:10163000002876D004212046FEF7FEFF002871D056
:1016400002212046FEF7F8FF00286CD00121204639
:10165000FEF7F2FF002867D0012280212046FEF726
:10166000F0FF012240212046FEF7EBFF002220215F
:101670002046FEF7E6FF012210212046FEF7E1FF9B
:1016800008212046FEF7D8FF00286ED0042120460E
:10169000FEF7D2FF002869D002212046FEF7CCFFDA
:1016A000002874D001212046FEF7C6FF00286FD025
:1016B000012280212046FEF7C4FF0122402120465E
:1016C000FEF7BFFF012220212046FEF7BAFF0022CD
:1016D0001021204603E028E02FE036E03DE0FEF751
:1016E000B0FF08212046FEF7A7FF002871D0042193
:1016F0002046FEF7A1FF00286CD002212046FEF70D
:101700009BFF002867D001212046FEF795FF0028A7
:1017100006D101212046FEF78FFF0028F9D0442092
:1017200010BD24E02BE034E03BE008212046FEF72A
:1017300083FF0028F9D03120F2E704212046FEF78C
:101740007BFF0028F9D03220EAE702212046FEF78D
:1017500073FF0028F9D03320E2E701212046FEF78D
:101760006BFF0028F9D04120DAE722E029E00821C8
:101770002046FEF761FF0028F9D03420D0E704218D
:101780002046FEF759FF0028F9D03520C8E723E0AE
:101790002AE002212046FEF74FFF0028F9D036202C
:1017A000BEE701212046FEF747FF0028F9D042207E
:1017B000B6E708212046FEF73FFF0028F9D0372082
:1017C000AEE704212046FEF737FF0028F9D0382085
:1017D000A6E711E018E01FE002212046FEF72CFFEB
:1017E0000028F9D039209BE701212046FEF724FF8D
:1017F0000028F9D0432093E708212046FEF71CFF7C
:101800000028F9D02A208BE704212046FEF714FF98
:101810000028F9D0302083E702212046FEF70CFF94
:101820000028F9D023207BE7000002404FF04070F1
:10183000E1EE100A70470000000000000000010205
:101840000304060708090000000001020304000069
:10185000701800080000002010000000D4010008EB
:101860008018000810000020C8060000F0010008E1
:101870000100000010000000000000000024F4003F
:040000050800019955
:00000001FF
