:020000040800F2
:100000008807002039020008F31A0008ED160008DE
:10001000F11A0008C30400081F1E000800000000B9
:10002000000000000000000000000000F71A0008B7
:10003000C504000800000000F51A0008F91A0008BD
:10004000530200085302000853020008530200083C
:10005000530200085302000853020008530200082C
:10006000530200085302000853020008530200081C
:10007000530200085302000853020008530200080C
:100080005302000853020008530200080000000059
:100090000000000000000000000000005302000803
:1000A00053020008A11B0008530200085302000875
:1000B00053020008530200085302000853020008CC
:1000C00053020008530200085302000853020008BC
:1000D0005302000853020008530200080000000009
:1000E00053020008530200085302000800000000F9
:1000F00000000000000000000000000053020008A3
:1001000000000000530200085302000853020008D8
:1001100000000000000000000000000000000000DF
:10012000530200085302000853020008530200085B
:100130005302000800000000000000000000000062
:100140000000000000000000000000005302000852
:10015000530200085302000853020008530200082B
:1001600053020008530200080000000000000000D5
:10017000000000000000000000000000000000007F
:100180000000000053020008000000000000000012
:10019000530200085302000800F002F800F03CF897
:1001A0000AA090E8000C82448344AAF10107DA45D2
:1001B00001D100F031F8AFF2090EBAE80F0013F0E8
:1001C000010F18BFFB1A43F0010318474423000036
:1001D00064230000103A24BF78C878C1FAD85207C7
:1001E00024BF30C830C144BF04680C6070470000B1
:1001F0000023002400250026103A28BF78C1FBD830
:10020000520728BF30C148BF0B6070471FB502F0CE
:100210006DF91FBD10B510BD00F01AF91146FFF7BA
:10022000F5FF01F06FFF00F038F903B4FFF7F2FFBC
:1002300003BC00F03FF90000094880470948004727
:10024000FEE7FEE7FEE7FEE7FEE7FEE7FEE7FEE786
:10025000FEE7FEE704480549054A064B70470000E3
:10026000911B0008990100088801002088070020E0
:10027000880300208803002053EA020C00F0698004
:100280002DE9F04B4FF00006002B1FBFB3FA83F5AA
:1002900003FA05F424FA05F65E4012BF1643B2FADB
:1002A00082F502FA05F4C5F120051EBF22FA05FC0D
:1002B00044EA0C04203556EA044C4FEA144418BFB3
:1002C000641C4FF000084FF00009904271EB030CE2
:1002D00039D3002919BFB1FA81F701FA07F6B0FA4C
:1002E00080F700FA07F6C7F120071EBF20FA07FCC7
:1002F00046EA0C062037B6FBF4FCA7EB0507103FD7
:1003000007F01F0BCBF120060CFA0BFB2CFA06F6BC
:1003100044BFB3460026202FA4BF5E464FF0000B1B
:100320005BEA060C08BF4FF0010B19EB0B09ABFBA6
:10033000027C48EB0608C01B06FB02CC0BFB03CC7F
:1003400071EB0C01C1E70B46024641464846BDE849
:10035000F08B13B54FF000004FF00001AFF30080B9
:10036000BDE81C40704740EA010370B59B072ED1E1
:100370004FF00136042A2AD308C810C99D1B9D439B
:10038000121F15EAC61517D0D8B2E1B2401A50EACA
:10039000056110D198B2A1B2401A50EA05410AD1C4
:1003A00023F07F4024F07F41401A50EA052102D11A
:1003B000180EA0EB146070BDA342DBD018BA21BAAE
:1003C000884201D9012070BD4FF0FF3070BD0AB9DD
:1003D000002070BD10F8013B11F8014B63B1A3423E
:1003E0000AD1521E08D010F8013B11F8014B1BB185
:1003F000A34201D1521EEDD1181B70BD4FF0000277
:1004000000B5134694469646203922BFA0E80C500A
:10041000A0E80C50B1F12001BFF4F7AF090728BFE5
:10042000A0E80C5048BF0CC05DF804EB890028BF61
:1004300040F8042B08BF704748BF20F8022B11F08A
:10044000804F18BF00F8012B704770477047704706
:10045000754600F02BF8AE4605006946534620F07D
:100460000700854618B020B5FFF7F4FEBDE8204030
:100470004FF000064FF000074FF000084FF0000B60
:1004800021F00701AC46ACE8C009ACE8C009ACE813
:10049000C009ACE8C0098D46704710B50446AFF3FB
:1004A00000802046BDE81040FFF7BFBE00487047FF
:1004B0002801002001491820ABBEFEE726000200FB
:1004C0007047FEE77047000070B5044600F008F979
:1004D0000546601C02D004480078044400F000F98E
:1004E000401BA042FAD370BD040000202DE9F84F54
:1004F000DFF8B8A10022012403254FF00F090AF10B
:10050000040BAAF1040E00BF0B6804FA02F6334094
:10051000B34273D10F7907F00307012F01D0022FE7
:1005200016D187684FEA420805FA08FC27EA0C074B
:10053000D1F80CC00CFA08FC4CEA070CC0F808C053
:100540004768B7430E79C6F3001696403E434660AF
:100550000E79F643B6070DD0C768560005FA06FCBB
:1005600027EA0C07D1F808C00CFA06FC4CEA070C85
:10057000C0F80CC00E7906F00306022E10D1D60882
:1005800000EB8608D8F8206057074FEAD76C09FAC5
:100590000CF7BE430F6907FA0CF73743C8F8207011
:1005A00006684FEA420C05FA0CF7BE430F7907F0D4
:1005B000030707FA0CF7374307604E6816F4403F0D
:1005C0006DD03B4E376847F480473760366822F07D
:1005D000030706F480460096364E07EB060CDCF85F
:1005E000086897073F0F09FA07F826EA0806DFF8B8
:1005F000C880404503D14FF000081EE04FE0DFF80F
:10060000BC80404502D14FF0010816E0DFF8B08011
:10061000404502D14FF002080FE0DFF8A8804045C6
:1006200002D14FF0030808E0DFF89C80404502D17A
:100630004FF0040801E04FF0070808FA07F848EA0D
:100640000608CCF80888DAF800605746D1F804C0EC
:100650009E435FEACC2C00D51E433E60DBF8006071
:100660005F46D1F804C09E435FEA8C2C00D51E4340
:100670003E60DEF800607746D1F804C09E435FEA32
:100680008C3C00D51E433E60084F083F3E68D1F8C1
:1006900004C09E435FEACC3C00D51E433E60521C22
:1006A000102AFFF431AFBDE8F88F0000083C01408C
:1006B0004438024000300140000002400004024083
:1006C00000080240000C024000100240006908408F
:1006D00000D0012070470AB1816170470904FBE72F
:1006E00001488068704700000400002070B50400D5
:1006F00025D094F83D00002520B984F83C502046D0
:1007000000F04EF9242084F83D002068016821F0B3
:10071000010101602068016841F400410160206826
:10072000016821F40041016000F0A2FA4D4A6168BD
:10073000914201D84C4900E04C49884201D2012045
:1007400070BD4B492368B0FBF1F15E6826F03F06AF
:100750000E435E606368934206D94FF49673594323
:100760004FF47A73B1FBF3F12368491C1E6A26F03B
:100770003F06314319626168914210D84900401E1A
:10078000B0FBF1F2521CC2F30B02042A01D2042086
:1007900022E0B0FBF1F0401CC0F30B001CE0A268AB
:1007A000F2B301EBC10303EB0116431EB3FBF6F3F7
:1007B0005B1C43F480431B0549D092B301EBC1029B
:1007C00002EB0111401EB0FBF1F0401CC0F30B0026
:1007D00040F4804040F400402168CA694CF6FF7341
:1007E0009A431043C861D4E90710014320680268A6
:1007F00022F0C00211430160D4E9030101432068E3
:10080000826848F2FF339A4311438160D4E90501BD
:1008100008432168CA6822F0FF021043C86001E063
:100820000EE016E02068016841F0010101602564D6
:10083000202084F83D00256384F83E50002070BDE0
:1008400001EB4106431EB3FBF6F35B1CB3E701204B
:10085000C2E701EB4101401EB0FBF1F0401CC0F3C8
:100860000B00B7E7A086010080841E0000093D0050
:1008700040420F002DE9F84F1F4690468A46044635
:10088000DDF82890FFF72CFF054694F83D0020285E
:100890007FD11923012240492046009500F0B2FF84
:1008A000002876D194F83C00012872D0012084F809
:1008B0003C0020680168C90703D1016841F00101CB
:1008C00001602068016821F400610160212084F842
:1008D0003D00102084F83E0000262664C4F82480E1
:1008E0006785608D20852D48E0622B464A4651463B
:1008F000204600F013FF90B920684169806900909C
:1009000036E02A464946204600F0FBFF50B1206CF5
:10091000042804D12068016841F4007101600120BD
:10092000BDE8F88F606A216800780861606A401C41
:100930006062618D491E6185218D491E89B22185C4
:1009400022685369DB435B070BD451B10078106117
:10095000606A401C6062608D401E6085208D401E74
:1009600020852A464946204600F026FF0028CED1A1
:10097000208D0028C5D154F83D0B016841F4007169
:100980000160202004F81E09E67766770020C7E79B
:10099000FFE70220C4E70000020010000000FFFF94
:1009A00010B586B0044614216846FFF727FD1349A9
:1009B0002068884220D112480021026842F00202D9
:1009C0000260006800F002000590C0200090122034
:1009D000CDE90101032003900420049069460948F1
:1009E000FFF784FD06481030016841F400110160F2
:1009F000006800F40010059006B010BD00540040DF
:100A000030380240000402400248816802781144F4
:100A100081607047040000200B4810B5016841F464
:100A200000710160016841F480610160016841F476
:100A300080710160032000F06FF80F2000F006F8CD
:100A400000F024F8002010BD003C024070B50D4DB0
:100A500004464FF47A712878B1FBF0F00A4909682E
:100A6000B1FBF0F000F0FAFA48B9102C07D20022DE
:100A70002146501E00F030F800206C6070BD01204F
:100A800070BD000004000020100000200A4808B5D6
:100A9000016841F480410160006800F480400090EA
:100AA0000548001F016841F080510160006800F0B6
:100AB0008050009008BD000044380240002809DB47
:100AC00000F01F02012191404009800000F1E02068
:100AD000C0F8001170470000F0B40E4B1B680C46C4
:100AE000C3F30223C3F10705042D00D90425191D02
:100AF000072901D2002300E0DB1E012606FA05F1DA
:100B0000491E214099409E40761E16403143F0BC5C
:100B100001F086B90CED00E0064900F00702086814
:100B20004FF6FF03184040EA0220034A10430860D2
:100B3000704700000CED00E00000FA052DE9F047D9
:100B40000E46050065D0DFF81481D8F80000F7B232
:100B500000F00700B04207D288F80070D8F8000013
:100B600000F00700B04254D128683D4C810712D5EF
:100B7000400703D5206840F4E05020602878000743
:100B800003D5206840F4604020602068A96820F008
:100B9000F000084320602878C0072DD030496868ED
:100BA0000839012812D0022813D0032811D009686F
:100BB000890700292DDA216821F003010143216012
:100BC000FFF78EFD814641F2883A0EE009688903FD
:100BD000EFE709688901ECE7FFF782FDA0EB090167
:100BE000514502D90320BDE8F0872068696800F00C
:100BF0000C00B0EB810FEFD1D8F80010404601F0A7
:100C00000701B14207D90770006800F00700B04241
:100C100001D00120E7E72878400705D52068E9687A
:100C200020F4E050084320602878000706D52068AB
:100C3000296920F4604040EAC100206000F028F8F3
:100C40002168084AC1F30311515CC8400649086095
:100C500006480068FFF7FAFE0020C4E7003C0240A7
:100C600008380240F6240008100000200800002088
:100C70000448054900680968044AC1F38221515CAF
:100C8000C8407047100000200838024006250008C0
:100C9000154810B5006810F00C02144813D041102C
:100CA000042A0FD0082A0ED10F4C241F2268236873
:100CB00002F03F025B0207D52068C0F38810A0FB5A
:100CC000010106E0084610BD2168C1F38811A1FBAF
:100CD00000010023FFF7D0FA2168C1F30141491C4C
:100CE0004900B0FBF1F010BD083802400024F400C8
:100CF0002DE9F84F04006ED02078DFF84C93C00740
:100D0000A9F104054AD009F104000168C1F3810189
:100D1000012908D00068C0F3810002280AD1D9F85F
:100D20000000400206D52868800337D56068002897
:100D3000E1D033E06068B0F5803F10D0B0F5A02F6F
:100D4000286810D020F480302860286820F48020A3
:100D500028606068A8B1FFF7C3FC06460DE028686C
:100D600040F48030F4E740F480202860F7E700BFCB
:100D7000FFF7B6FC801B642873D828688003F7D57A
:100D80000CE0FFF7ADFC064605E000BFFFF7A8FC4E
:100D9000801B6428F0D828688003F7D42078DFF817
:100DA000AC8280074FF0000A3ED5A748001D0168BD
:100DB00011F00C0F08D00068C0F3810002280BD19D
:100DC000D9F80000400207D42868800716D5E068EB
:100DD000012800D112E033E1E068B8B10120C8F881
:100DE0000000FFF77DFC064605E000BFFFF778FC3A
:100DF000801B0228C0D828688007F7D52868216999
:100E000020F0F80040EAC10028600DE0C8F800A01A
:100E1000FFF766FC064604E0FFF762FC801B022831
:100E20001FD828688007F7D42078000722D5864F7E
:100E300087486169703771B101210160FFF750FC8B
:100E4000064604E0FFF74CFC801B022809D83868EE
:100E50008007F7D50EE0C0F800A0FFF741FC06467A
:100E600005E082E0FFF73CFC801B02287DD8386853
:100E70008007F7D42078400768D5DFF8CCB1002789
:100E80000BF13C0BDBF80000C0000BD4DBF80010CA
:100E900041F08051CBF80010DBF80000012700F092
:100EA000805000906B4E3068C00510D4306840F41C
:100EB00080703060FFF714FC009005E0FFF710FC35
:100EC0000099401A022850D83068C005F6D55E4E09
:100ED000A0686C3601280FD00528306810D020F0AB
:100EE00001003060306820F004003060A068B8B1C4
:100EF000FFF7F6FB00900FE0306840F00100F4E7E8
:100F000040F004003060F7E7FFF7EAFB0099411A70
:100F100041F28830814266D830688007F4D50EE00F
:100F2000FFF7DEFB009007E0FFF7DAFB0099411ABC
:100F300041F28830814256D830688007F4D42FB10E
:100F4000DBF8001021F08051CBF80010A069C8B385
:100F50003D49091D0968C1F3810102294AD00228CF
:100F6000504607D0C8F8600000E03CE0FFF7B8FB4F
:100F700004463BE04746C8F86000FFF7B1FB064671
:100F800005E000BFFFF7ACFB801B02282BD82868C8
:100F90008001F7D4D4E907010843A16A2E4A490821
:100FA00002EB0141626A41EA8211084394F82C1075
:100FB00040EA0161C9F8001001203866FFF790FB94
:100FC000044606E03EE000BFFFF78AFB001B022854
:100FD00009D828688001F7D534E000BFFFF780FB0F
:100FE000001B022802D90320BDE8F88F2868800181
:100FF000F4D427E00128F7D0D9F80000E26900F422
:10100000800191421CD1226A00F03F01914217D128
:1010100047F6C071626A0140B1EB821F10D1A26A2B
:101020004FF0FF3300F4403103EB5202B1EB024FBB
:1010300006D194F82C1000F07060B0EB016F01D075
:101040000120D1E70020CFE70438024000004742EA
:10105000800E4742007000400000FFFF10B5401EA8
:10106000B0F1807F01D3012010BD4FF0E02460611A
:101070000F21601700F0D4FE0020A061072020613E
:10108000002010BD7047704710B590F83C20012A31
:1010900022D0012280F83C20CA688C6822F4407279
:1010A00022434C6822F4806222430C6822F40062DE
:1010B00022430C6922F4805222434C6922F40052EC
:1010C0002243C969002322F480420A4301684A642A
:1010D00080F83C30002010BD022010BD70B590F8A3
:1010E0003C20012A2CD0012480F83C40022280F8C8
:1010F0003D2003685A689D6822F070060A683243F2
:101100005A60104B02689A420ED0B2F1804F0BD059
:101110000D4B9A4208D00D4B9A4205D00C4B9A4287
:1011200002D00C4B9A4204D1496825F08003194340
:10113000916080F83D40002180F83C10084670BD69
:10114000022070BD00000140000400400008004083
:10115000000C00400040014010B5040003D094F89A
:101160003D0010B107E0012010BD002084F83C00D4
:10117000204600F01FF8022084F83D00211D206861
:1011800000F01CFD012084F8460084F83E0084F83D
:101190003F0084F8400084F8410084F8420084F85D
:1011A000430084F8440084F8450084F83D000020A2
:1011B00010BD000008B5114A01681148914207D1DD
:1011C000016841F001010160006800F0010009E0E0
:1011D0000C4A914211D1016841F40031016000686C
:1011E00000F400300022009011461920FFF774FC33
:1011F000BDE808401920FFF761BC08BD00000140B0
:10120000443802400044014090F83D10012901D0CB
:1012100001207047022180F83D100168CA6842F041
:101220000102CA6000680E4988420ED0B0F1804FBA
:101230000BD00C49884208D00B49884205D00B4995
:10124000884202D00A49884204D1816801F007012E
:10125000062903D0016841F00101016000207047B8
:10126000000001400004004000080040000C004065
:101270000040014070B5044690F83C00002501286C
:1012800017D0012684F83C60022084F83D002068D5
:10129000826822F0770222F47F4282600868502838
:1012A00038D00DDC20284FD005DC90B3102811D1A8
:1012B0004AE0022070BD302846D040280AD13BE0E9
:1012C00060282FD070280DD0B0F5805F03D0B0F526
:1012D000005F12D0012584F83D60002084F83C00B6
:1012E000284670BDCB68D1E90121206800F0BFFC21
:1012F0002068816841F0770109E0CB68D1E90121DC
:10130000206800F0B4FC2068816841F4804181606D
:10131000E1E719E0CA684968206800F05DFD5021E6
:10132000206806E0CA684968206800F066FD602110
:10133000206800F0A6FCCEE7CA684968206800F083
:101340004BFD40212068F4E7226801461046F0E793
:10135000704770B50446006801694FF00005C94345
:10136000890715D4C168C943890711D4E91E0161F1
:1013700001202077206880698007204602D0FFF78F
:10138000E7FF04E000F0C2F8204600F054F92577AA
:1013900020680169C943490717D4C168C94349078F
:1013A00013D46FF004010161022020772068806966
:1013B00010F4407F204602D0FFF7CAFF04E000F09F
:1013C000A5F8204600F037F9257720680169C94360
:1013D000090716D4C168C943090712D46FF0080180
:1013E0000161042020772068C0698007204602D070
:1013F000FFF7AEFF04E000F089F8204600F01BF98B
:10140000257720680169C943C90617D4C168C94353
:10141000C90613D46FF010010161082020772068FD
:10142000C06910F4407F204602D0FFF791FF04E02E
:1014300000F06CF8204600F0FEF82577206801697E
:10144000C943C90708D1C168C943C90704D1891E66
:101450000161204600F048F920680169C943090686
:1014600009D4C168C943090605D46FF08001016140
:101470002046FFF707FE20680169C943490609D4E1
:10148000C168C943490605D46FF040010161204697
:1014900000F02BF920680169C94389060BD4C168A3
:1014A000C943890607D46FF0200101612046BDE8D9
:1014B0007040FFF7E8BD70BD10B586B0044614213A
:1014C0006846FEF79BFF0E492068884216D10D48FA
:1014D0000021026842F010020260006800F0100073
:1014E00005904FF4007000900220CDE90101012029
:1014F000CDE9031069460448FEF7F8FF06B010BDB9
:10150000000001403038024000100240704770B5C2
:10151000044690F83C0000260D4601280FD001201B
:1015200084F83C006AB1042A1DD0082A2FD00C2A66
:101530003FD00126002084F83C00304670BD0220D8
:1015400070BD206800F0A6FB2068816941F00801A9
:1015500081612068816921F00401816120688169CD
:101560002A69114311E0206800F0BCFB2068816902
:1015700041F4006181612068816921F480618161A9
:10158000206881692A6941EA02218161D2E72068E5
:1015900000F0D4FB2068C16941F00801C1612068F6
:1015A000C16921F00401C1612068C1692A69114340
:1015B00011E0206800F0EEFB2068C16941F4006191
:1015C000C1612068C16921F48061C1612068C1697D
:1015D0002A6941EA0221C161ACE710B5040003D0D9
:1015E00094F83D0010B107E0012010BD002084F800
:1015F0003C00204600F01EF8022084F83D00211D2A
:10160000206800F0DBFA012084F8460084F83E00F0
:1016100084F83F0084F8400084F8410084F84200D8
:1016200084F8430084F8440084F8450084F83D00C1
:10163000002010BD7047704710B50446022249B122
:1016400004290ED0082913D094F84100012816D09F
:10165000012010BD94F83E000128F9D184F83E2005
:101660000FE094F83F000128F2D184F83F2008E011
:1016700094F840000128EBD184F8402001E084F880
:1016800041200122206800F0E5FA124920688842D2
:1016900003D1426C42F400424264206888420ED07A
:1016A000B0F1804F0BD00C49884208D00B498842DA
:1016B00005D00B49884202D00A49884204D181688A
:1016C00001F00701062903D0016841F00101016022
:1016D000002010BD00000140000400400008004050
:1016E000000C00400040014070477047FEE7016871
:1016F0004A69D24352050FD46FF480624A610021D7
:1017000040F8301F202242738173026942F00402C4
:10171000026101730120704700207047F8B504464C
:10172000C06A1E460D461746082807D0012805D076
:1017300010F5803F02D0206B122804D12068016888
:1017400041F480710160134600224FF001112046E0
:10175000009600F057F840B120680068C00502D537
:101760004FF4007020640320F8BD2069B0F5804F6D
:101770000ED00620216800EAD51040F0F000086184
:1017800033463A460B49204600F070F878B902E03B
:1017900005F0FE0000E0E8B2216808610549334623
:1017A0003A46891F204600F061F80028DCD001206D
:1017B000F8BD00000800010070B516460D4604464D
:1017C0000DE02046FFF793FF08B1012070BD681CB3
:1017D00005D0FEF785FF801BA84207D835B12068E9
:1017E0004069C0434007ECD4002070BD002044F89D
:1017F000300F20216173A073216941F02001216124
:101800002073E2E72DE9F0471E4690460D46044658
:10181000C1F30747DDF8209008E0701C06D0FEF702
:101820005FFFA0EB0900B0420FD876B12068012F0E
:1018300018D0806925EA00000004000C14D00021B3
:101840004145EAD00020BDE8F087002044F8300F81
:1018500020216173A073216941F02001216120736F
:101860000120F0E74069E5E70121E9E72DE9F047CC
:101870009A4691460E46044600254FF02008C1F3D3
:10188000074725E020684069C043400514D420681C
:10189000016841F40071016021686FF48060486163
:1018A000256384F83D8084F83E50206C40F00400AD
:1018B000206484F83C501FE0B9F1FF3F08D0FEF7E8
:1018C0000FFFA0EB0A0149450CD8B9F1000F09D070
:1018D0002068012F13D0806926EA00000004000C64
:1018E0000BD0CFE744F8305F84F80D80A5732069F2
:1018F00040F02000206125730120BDE8F087406999
:10190000EAE770B516460D4604460DE02046FFF79F
:10191000EEFE08B1012070BD681C05D0FEF7E0FEA8
:10192000801BA84207D835B120684069C043000633
:10193000ECD4002070BD002044F8300F20216173EA
:10194000A073216941F0200121612073E2E70000CA
:101950002DE9F04387B014216846FEF74FFD2F486C
:101960000024016841F080010160016801F08001FC
:101970000591016841F001010160016801F0010178
:101980000591016841F010010160016801F010014A
:101990000591016841F008010160016801F008014A
:1019A0000591016841F0020101600068DFF8708074
:1019B00000F0020005900022F0214046FEF78BFE69
:1019C000DFF860904FF40057002239464846FEF792
:1019D00082FE0F2001268DE8510069464046FEF741
:1019E00085FDF020CDE90006022569464046CDE997
:1019F0000245FEF77BFDCDE9007669464846CDE914
:101A00000245FEF773FDCDE900546946484602954C
:101A1000FEF76CFD07B0BDE8F083000030380240EF
:101A200000000240000C024010B596B000240F9454
:101A300010941194129413941C2108A81494FEF786
:101A4000DDFC20216846FEF7D9FC284826490160C4
:101A50004FF47A71C0E90114C0E903144461846150
:101A6000FFF77AFB08B172B6FEE74FF480500F9093
:101A70000FA91E48FFF7FEFB08B172B6FEE71B4830
:101A8000FFF7ABFD08B172B6FEE7139413A9174830
:101A90001494FFF723FB08B172B6FEE76020CDE98E
:101AA00008040A940B940C940D94002208A90F4882
:101AB0000E94FFF72CFD08B172B6FEE700944FF4C8
:101AC0000050CDE90440029401940394694607480C
:101AD0000794FFF7D9FA08B172B6FEE70348FFF79B
:101AE000EBFC16B010BD0000000001409800002083
:101AF000FEE7FEE770477047FEF786BF30B593B04C
:101B000030216846FEF77AFC14210CA8FEF776FC1B
:101B10001D480024016841F080510160006800F018
:101B2000805011901948016841F4404101600068FB
:101B3000022500F440401190012000900004019023
:101B40008001CDE90650082008904FF4C870099034
:101B500004200A900B906846FFF7CAF808B172B6E5
:101B6000FEE70F20CDE90C054FF4A050CDE90E4063
:101B700003210CA81094FEF7E1FF002801D072B6F3
:101B8000FEE713B030BD0000403802400070004056
:101B90000248016841F470010160704788ED00E07F
:101BA00010B50448FFF7D5FBBDE810400248FFF729
:101BB000D0BB000098000020E0000020F0B50268D3
:101BC0001D4B1E4C9F031E4D1E4E984207D0B8421F
:101BD00005D0A04203D0A84201D0B04204D122F0E7
:101BE000700C4A6842EA0C02984210D0B8420ED0FB
:101BF000A0420CD0A8420AD0B04208D0124CA04259
:101C000005D0124CA04202D0114CA04203D122F4C4
:101C10004074CA6822434C6922F080022243026069
:101C20008A68C2620A688262984201D109690163C6
:101C300001214161F0BD00000000014000040040AE
:101C400000080040000C00400040014000440140FA
:101C50000048014010B501F01F030121046A9940BA
:101C60008C430462016A9A401143016210BD10B5B1
:101C7000846842EA032224F47F440A4322438260B8
:101C800010BD826822F070020A4342F007018160B1
:101C90007047000030B5026A22F001020262026A57
:101CA0004368846924F073050C682C4322F0020514
:101CB0008A682A430A4DA8420BD122F00805CA6857
:101CC00023F440732A434D6922F004021D438B69BB
:101CD0002B434360846149684163026230BD000068
:101CE0000000014030B5026A22F010020262026A6E
:101CF000436884690D6824F4E64444EA05248D6849
:101D000022F0200242EA05120B4DA8420ED1CD6806
:101D100022F0800242EA05124D6923F4406343EA4F
:101D200085038D6922F0400243EA850343608461A4
:101D300049688163026230BD0000014030B5026A2B
:101D400022F480720262036A4268C46923F4007359
:101D500024F073050C682C438D6843EA05230C4D71
:101D6000A8420ED1CD6823F4006343EA05234D69F0
:101D700022F4405242EA05128D6923F4806342EA5C
:101D800005124260C4614968C163036230BD00004E
:101D90000000014030B5026A22F480520262046AF7
:101DA0004268C3690D6823F4E64343EA05238D685E
:101DB00024F4005444EA0534064DA84204D14D6988
:101DC00022F4804242EA85124260C361496801649C
:101DD000046230BD0000014010B5036A046A24F0BB
:101DE00001040462846924F0F00444EA021423F03C
:101DF0000A020A438461026210BD10B5036A23F02F
:101E0000100303628369046A23F4704343EA0232D5
:101E100024F0A00343EA01118261016210BDFEE7D4
:101E20000907090E002804DB00F1E02080F8001407
:101E3000704700F00F0000F1E02080F8141D70479B
:101E400004480021026851620068416A0A29FCD3F3
:101E500070470000E000002010B50446002302E0B7
:101E6000FFF7EEFF5B1CA342FADB10BD70B500F07C
:101E7000E7F80021084600F0EFF846A000F038F936
:101E80001021494800F0D0F9474800251EC840F805
:101E9000105C40F80C5C40F8085C40F8045C80E89A
:101EA0001E00102200F11001FEF75DFA3F4C0028E1
:101EB0002ED02068401C206000F0C2F801210020D4
:101EC00000F0CAF83AA000F013F90021012000F058
:101ED000C3F83BA000F00CF92068052817D14FF497
:101EE0007A70FEF7F1FA00F0ABF80021084600F036
:101EF000B3F838A000F0FCF80021012000F0ACF8A5
:101F000039A000F0F5F83C48FFF7A6FF256070BD4A
:101F100000F096F80421002000F09EF837A000F0B1
:101F2000E7F80021012000F097F837A000F0E0F872
:101F300025601D4C4B208434216848630122374DB5
:101F4000560331462846FEF7C6FB02212846FEF717
:101F5000BDFB0128F9D1002231462846FEF7BBFB24
:101F60002168AF20486300F06BF80221002000F0E8
:101F700073F82BA000F0BCF80121084600F06CF8C3
:101F80002BA000F0B5F8BDE870404FF49660FEF766
:101F90009BBA0000454E5445522050415353574F71
:101FA00052443A20000000001400002000000020ED
:101FB0004143434553532044454E49454421000085
:101FC000504C454153452054525920414741494EB8
:101FD000000000004E48415020534149203E20352A
:101FE000204C414E000000005741495420464F52BA
:101FF0002033204D494E530020BF0200434F525220
:1020000045435421000000002D2D2D20554E4C4FEE
:10201000434B4544202D2D2D00000000000C0240B4
:10202000474F4F4420425945205E2D5E000000007E
:1020300053454520594F5520414741494E00000026
:1020400010B5802000F014F80024202000F030F8B3
:10205000641C462CF9DB10BD10B1012805D102E04B
:1020600041F0800101E041F0C001C8B2AFF300804F
:102070001CB500F0F00141F00C028DF8042041F095
:10208000080100018DF8051040F00C018DF80610D4
:1020900040F008008DF8070064200090042301AA96
:1020A0004E210248FEF7E6FB1CBD00004400002064
:1020B0001CB500F0F00141F00D028DF8042041F054
:1020C000090100018DF8051040F00D018DF8061092
:1020D00040F009008DF8070064200090042301AA55
:1020E0004E210248FEF7C6FB1CBD00004400002044
:1020F00010B5044602E0641CFFF7DAFF20780028E0
:10210000F9D110BDFEF788FCFFF7F8FCFFF720FCC3
:1021100036483549002401603549C0E901144FF4BF
:102120008041C0E9034144618461C4610462FEF7F7
:10213000DDFA08B172B6FEE7FFF776FC2B482D49B1
:102140009C30016042F21071C0E90114491EC0E9DF
:1021500003148461FFF700F808B172B6FEE7234864
:102160009C30FFF751F8214800215430FFF764FA02
:10217000FFF766FF00210846FFF76EFF1EA0FFF77E
:10218000B7FF02210120FFF767FF1FA0FFF7B0FF95
:102190004FF4FA60FEF798F9FFF752FF0021084666
:1021A000FFF75AFF1CA0FFF7A3FF00210120FFF754
:1021B00053FF0E4D1021303D28462C606C60AC6002
:1021C000EC6000F031F895E80F0010C510C510C59F
:1021D00045F8144B4FF4966485E80F002046FEF74F
:1021E00073F9FFF743FEF9E7005400404400002074
:1021F000A08601000044014057454C434F4D452007
:10220000544F205549540000434520464143554C06
:102210005459205E2D5E0000434149204D41544BEE
:102220004841553A2000000070B50E4600240C4D80
:1022300012E000BF00F016F8285523280ED0012820
:1022400007D021460120FFF707FF285DFFF730FF89
:10225000641C6420FEF738F9B442EBDB70BD00006B
:102260001400002010B5A04C002280212046FEF76B
:1022700032FA012240212046FEF72DFA01222021C8
:102280002046FEF728FA012210212046FEF723FA05
:1022900008212046FEF71AFA00287CD004212046A7
:1022A000FEF714FA002877D002212046FEF70EFA36
:1022B000002872D001212046FEF708FA00286DD0D0
:1022C000012280212046FEF706FA00224021204606
:1022D000FEF701FA012220212046FEF7FCF9012237
:1022E00010212046FEF7F7F908212046FEF7EEF907
:1022F000002876D004212046FEF7E8F9002871D0A6
:1023000002212046FEF7E2F900286CD00121204688
:10231000FEF7DCF9002867D0012280212046FEF775
:10232000DAF9012240212046FEF7D5F900222021CA
:102330002046FEF7D0F9012210212046FEF7CBF906
:1023400008212046FEF7C2F900286ED0042120465D
:10235000FEF7BCF9002869D002212046FEF7B6F945
:10236000002874D001212046FEF7B0F900286FD074
:10237000012280212046FEF7AEF9012240212046AD
:10238000FEF7A9F9012220212046FEF7A4F9002238
:102390001021204603E028E02FE036E03DE0FEF784
:1023A0009AF908212046FEF791F9002871D00421FE
:1023B0002046FEF78BF900286CD002212046FEF75C
:1023C00085F9002867D001212046FEF77FF9002813
:1023D00006D101212046FEF779F90028F9D04420E2
:1023E00010BD24E02BE034E03BE008212046FEF75E
:1023F0006DF90028F9D03120F2E704212046FEF7DC
:1024000065F90028F9D03220EAE702212046FEF7DC
:102410005DF90028F9D03320E2E701212046FEF7DC
:1024200055F90028F9D04120DAE722E029E0082117
:102430002046FEF74BF90028F9D03420D0E70421DC
:102440002046FEF743F90028F9D03520C8E723E0FD
:102450002AE002212046FEF739F90028F9D036207B
:10246000BEE701212046FEF731F90028F9D04220CD
:10247000B6E708212046FEF729F90028F9D03720D1
:10248000AEE704212046FEF721F90028F9D03820D4
:10249000A6E711E018E01FE002212046FEF716F93A
:1024A0000028F9D039209BE701212046FEF70EF9DC
:1024B0000028F9D0432093E708212046FEF706F9CB
:1024C0000028F9D02A208BE704212046FEF7FEF8E9
:1024D0000028F9D0302083E702212046FEF7F6F8E5
:1024E0000028F9D023207BE7000002404FF0407025
:1024F000E1EE100A70470000000000000000010239
:10250000030406070809000000000102030400009C
:10251000302500080000002014000000D40100084D
:10252000442500081400002074070000F001000892
:10253000000000000100000010000000000000008A
:042540000024F4007F
:040000050800019955
:00000001FF
