:020000040800F2
:100000000008002039020008F32B0008751C0008C6
:10001000F12B0008C3040008E731000800000000CD
:10002000000000000000000000000000BD2E0008DD
:10003000C504000800000000F52B0008BF2E0008D2
:10004000530200085302000853020008530200083C
:10005000530200085302000853020008530200082C
:10006000530200085302000853020008530200081C
:10007000530200085302000853020008530200080C
:100080005302000853020008530200080000000059
:100090000000000000000000000000005302000803
:1000A00053020008692F0008530200085302000899
:1000B000530200085302000853020008791C00088C
:1000C00053020008530200085302000853020008BC
:1000D0005302000853020008530200080000000009
:1000E00053020008530200085302000800000000F9
:1000F00000000000000000000000000053020008A3
:1001000000000000530200085302000853020008D8
:1001100000000000000000000000000000000000DF
:10012000530200085302000853020008530200085B
:100130005302000800000000000000000000000062
:100140000000000000000000000000005302000852
:10015000530200085302000853020008530200082B
:1001600053020008530200080000000000000000D5
:10017000000000000000000000000000000000007F
:100180000000000053020008000000000000000012
:10019000530200085302000800F002F800F03CF897
:1001A0000AA090E8000C82448344AAF10107DA45D2
:1001B00001D100F031F8AFF2090EBAE80F0013F0E8
:1001C000010F18BFFB1A43F001031847FC38000069
:1001D0001C390000103A24BF78C878C1FAD85207F9
:1001E00024BF30C830C144BF04680C6070470000B1
:1001F0000023002400250026103A28BF78C1FBD830
:10020000520728BF30C148BF0B6070471FB503F0CD
:1002100049FC1FBD10B510BD00F01AF91146FFF7DB
:10022000F5FF03F085F900F038F903B4FFF7F2FFAA
:1002300003BC00F03FF90000094880470948004727
:10024000FEE7FEE7FEE7FEE7FEE7FEE7FEE7FEE786
:10025000FEE7FEE704480549054A064B70470000E3
:10026000592F000899010008000200200008002012
:10027000000400200004002053EA020C00F0698012
:100280002DE9F04B4FF00006002B1FBFB3FA83F5AA
:1002900003FA05F424FA05F65E4012BF1643B2FADB
:1002A00082F502FA05F4C5F120051EBF22FA05FC0D
:1002B00044EA0C04203556EA044C4FEA144418BFB3
:1002C000641C4FF000084FF00009904271EB030CE2
:1002D00039D3002919BFB1FA81F701FA07F6B0FA4C
:1002E00080F700FA07F6C7F120071EBF20FA07FCC7
:1002F00046EA0C062037B6FBF4FCA7EB0507103FD7
:1003000007F01F0BCBF120060CFA0BFB2CFA06F6BC
:1003100044BFB3460026202FA4BF5E464FF0000B1B
:100320005BEA060C08BF4FF0010B19EB0B09ABFBA6
:10033000027C48EB0608C01B06FB02CC0BFB03CC7F
:1003400071EB0C01C1E70B46024641464846BDE849
:10035000F08B13B54FF000004FF00001AFF30080B9
:10036000BDE81C40704740EA010370B59B072ED1E1
:100370004FF00136042A2AD308C810C99D1B9D439B
:10038000121F15EAC61517D0D8B2E1B2401A50EACA
:10039000056110D198B2A1B2401A50EA05410AD1C4
:1003A00023F07F4024F07F41401A50EA052102D11A
:1003B000180EA0EB146070BDA342DBD018BA21BAAE
:1003C000884201D9012070BD4FF0FF3070BD0AB9DD
:1003D000002070BD10F8013B11F8014B63B1A3423E
:1003E0000AD1521E08D010F8013B11F8014B1BB185
:1003F000A34201D1521EEDD1181B70BD4FF0000277
:1004000000B5134694469646203922BFA0E80C500A
:10041000A0E80C50B1F12001BFF4F7AF090728BFE5
:10042000A0E80C5048BF0CC05DF804EB890028BF61
:1004300040F8042B08BF704748BF20F8022B11F08A
:10044000804F18BF00F8012B704770477047704706
:10045000754600F02BF8AE4605006946534620F07D
:100460000700854618B020B5FFF7F4FEBDE8204030
:100470004FF000064FF000074FF000084FF0000B60
:1004800021F00701AC46ACE8C009ACE8C009ACE813
:10049000C009ACE8C0098D46704710B50446AFF3FB
:1004A00000802046BDE81040FFF7BFBE00487047FF
:1004B000A001002001491820ABBEFEE72600020083
:1004C0007047FEE7704790F83510022903D080216D
:1004D000416501207047052180F8351000680168EA
:1004E00021F0010101600020704790F8350070474D
:1004F00070B5044600F008F90546601C02D00448B7
:100500000078044400F000F9401BA042FAD370BD0B
:10051000140000202DE9F84FDFF8B8A100220124D3
:1005200003254FF00F090AF1040BAAF1040E00BFD6
:100530000B6804FA02F63340B34273D10F7907F027
:100540000307012F01D0022F16D187684FEA420816
:1005500005FA08FC27EA0C07D1F80CC00CFA08FCD5
:100560004CEA070CC0F808C04768B7430E79C6F3D9
:10057000001696403E4346600E79F643B6070DD00E
:10058000C768560005FA06FC27EA0C07D1F808C030
:100590000CFA06FC4CEA070CC0F80CC00E7906F009
:1005A0000306022E10D1D60800EB8608D8F820608A
:1005B00057074FEAD76C09FA0CF7BE430F6907FAE1
:1005C0000CF73743C8F8207006684FEA420C05FA6A
:1005D0000CF7BE430F7907F0030707FA0CF7374310
:1005E00007604E6816F4403F6DD03B4E376847F4C5
:1005F00080473760366822F0030706F4804600968D
:10060000364E07EB060CDCF8086897073F0F09FA2F
:1006100007F826EA0806DFF8C880404503D14FF006
:1006200000081EE04FE0DFF8BC80404502D14FF0EB
:10063000010816E0DFF8B080404502D14FF0020813
:100640000FE0DFF8A880404502D14FF0030808E032
:10065000DFF89C80404502D14FF0040801E04FF0E4
:10066000070808FA07F848EA0608CCF80888DAF814
:1006700000605746D1F804C09E435FEACC2C00D5F9
:100680001E433E60DBF800605F46D1F804C09E4325
:100690005FEA8C2C00D51E433E60DEF80060774692
:1006A000D1F804C09E435FEA8C3C00D51E433E60F7
:1006B000084F083F3E68D1F804C09E435FEACC3C37
:1006C00000D51E433E60521C102AFFF431AFBDE836
:1006D000F88F0000083C01404438024000300140DF
:1006E000000002400004024000080240000C0240EA
:1006F000001002400069084000D0012070470AB194
:10070000816170470904FBE7014880687047000079
:1007100014000020704770472DE9F047026800215F
:100720005368C66A90F83E4090F83D50102C12D0A5
:10073000402C10D0046C002C7DD05469E443A607F3
:100740007AD4DE43B60577D4036C03B19169BDE872
:10075000F04701F0A3BE976951694FF42A0CC943D1
:100760005FEAC1784FF02A4904D066452AD04E4549
:1007700028D010E0DE43B6050DD4C16A614501D131
:10078000012103E0C16A494501D10821C162BDE8E8
:10079000F04701F0EDBD0E0716D4DE43B60513D4C5
:1007A000416CC9B21161416B09B1C96B29B9816B47
:1007B000002907D0C96B002904D00068416841F4C2
:1007C00000614160BDE8F0878E0706D4DE43B605C0
:1007D00003D4BDE8F04701F03FBDFE435268760701
:1007E0004FEA02521DD4002AECDB0A0608D4DA4391
:1007F000520505D4490705D5BDE8F04701F0D0BC46
:100800004907DFD4D9438905DCD4212D05D0402CFC
:10081000D8D1BDE8F04701F0F1BDBDE8F04701F0E7
:100820007DBC002ACEDB4A060BD4DA43520508D43D
:10083000490708D501E00DE00EE0BDE8F04701F002
:10084000ABBB4907BED4D9438905BBD4BDE8F0474B
:1008500001F039BB916970E7E10606D4D9438905F7
:1008600003D4BDE8F04701F03DBE2821212D27D05B
:10087000292D25D0650655D4DD436D0552D4640776
:1008800052D590F83D30448D002C9BD01269446ABB
:100890002270426A521C4262428D521E4285428D33
:1008A000002A8FD12A2B8DD10268536823F48063EC
:1008B00053602222026380F83D1000F0E3F981E7E3
:1008C000250623D4DD436D0520D4640720D590F898
:1008D0003D30448D002CF2D0446A24781461426A81
:1008E000521C4262428D521E4285428D002AE6D140
:1008F000292BE4D10268536823F4806353602122DA
:10090000026380F83D1000F0BEF95BE76107D6D4C2
:10091000D9438905D3D4418D0029D0D0416A0978C3
:1009200011610AE06107CAD4D9438905C7D4418D52
:100930000029C4D01169426A1170416A491C4162A0
:10094000418D491E41853DE77047000070B50400A8
:1009500025D094F83D00002520B984F83C5020466D
:1009600000F054F9242084F83D002068016821F04B
:10097000010101602068016841F4004101602068C4
:10098000016821F40041016000F0B2FA4D4A61684B
:10099000914201D84C4900E04C49884201D20120E3
:1009A00070BD4B492368B0FBF1F15E6826F03F064D
:1009B0000E435E606368934206D94FF496735943C1
:1009C0004FF47A73B1FBF3F12368491C1E6A26F0D9
:1009D0003F06314319626168914210D84900401EB8
:1009E000B0FBF1F2521CC2F30B02042A01D2042024
:1009F00022E0B0FBF1F0401CC0F30B001CE0A26849
:100A0000F2B301EBC10303EB0116431EB3FBF6F394
:100A10005B1C43F480431B0549D092B301EBC10238
:100A200002EB0111401EB0FBF1F0401CC0F30B00C3
:100A300040F4804040F400402168CA694CF6FF73DE
:100A40009A431043C861D4E9071001432068026843
:100A500022F0C00211430160D4E903010143206880
:100A6000826848F2FF339A4311438160D4E905015B
:100A700008432168CA6822F0FF021043C86001E001
:100A80000EE016E02068016841F001010160256474
:100A9000202084F83D00256384F83E50002070BD7E
:100AA00001EB4106431EB3FBF6F35B1CB3E70120E9
:100AB000C2E701EB4101401EB0FBF1F0401CC0F366
:100AC0000B00B7E7A086010080841E0000093D00EE
:100AD00040420F0070477047704700002DE9F84F03
:100AE0001F4690468A460446DDF82890FFF70CFE24
:100AF000054694F83D0020287FD119230122404962
:100B00002046009501F0C2FD002876D194F83C0003
:100B1000012872D0012084F83C0020680168C907D0
:100B200003D1016841F0010101602068016821F4EE
:100B300000610160212084F83D00102084F83E000F
:100B400000262664C4F824806785608D20852D48A2
:100B5000E0622B464A465146204601F091FA90B990
:100B6000206841698069009036E02A46494620465F
:100B700001F00BFE50B1206C042804D120680168FC
:100B800041F4007101600120BDE8F88F606A2168BE
:100B900000780861606A401C6062618D491E618551
:100BA000218D491E89B2218522685369DB435B0789
:100BB0000BD451B100781061606A401C6062608D96
:100BC000401E6085208D401E20852A4649462046CD
:100BD00001F036FD0028CED1208D0028C5D154F873
:100BE0003D0B016841F400710160202004F81E09EA
:100BF000E67766770020C7E7FFE70220C4E700003A
:100C0000020010000000FFFF7047704710B586B06B
:100C1000044614216846FFF7F1FB17492068884213
:100C200028D116480021026842F0020202600068E2
:100C300000F002000590C02000901220CDE90101D3
:100C4000032003900420049069460D48FFF762FCDE
:100C50000A481030016841F4001101600068002268
:100C600000F40010059011461F2000F075F81F20B9
:100C700000F064F806B010BD005400403038024067
:100C800000040240704770470248816802781144AE
:100C900081607047140000200B4810B5016841F4D2
:100CA00000710160016841F480610160016841F4F4
:100CB00080710160032000F06FF80F2000F006F84B
:100CC00000F024F8002010BD003C024070B50D4D2E
:100CD00004464FF47A712878B1FBF0F00A490968AC
:100CE000B1FBF0F000F07DFC48B9102C07D20022D7
:100CF0002146501E00F030F800206C6070BD0120CD
:100D000070BD000014000020200000200A4808B533
:100D1000016841F480410160006800F48040009067
:100D20000548001F016841F080510160006800F033
:100D30008050009008BD000044380240002809DBC4
:100D400000F01F02012191404009800000F1E020E5
:100D5000C0F8001170470000F0B40E4B1B680C4641
:100D6000C3F30223C3F10705042D00D90425191D7F
:100D7000072901D2002300E0DB1E012606FA05F157
:100D8000491E214099409E40761E16403143F0BCDA
:100D900002F02ABA0CED00E0064900F007020868EC
:100DA0004FF6FF03184040EA0220034A1043086050
:100DB000704700000CED00E00000FA052DE9F04757
:100DC0000E46050065D0DFF81481D8F80000F7B2B0
:100DD00000F00700B04207D288F80070D8F8000091
:100DE00000F00700B04254D128683D4C810712D56D
:100DF000400703D5206840F4E050206028780007C1
:100E000003D5206840F4604020602068A96820F085
:100E1000F000084320602878C0072DD0304968686A
:100E20000839012812D0022813D0032811D00968EC
:100E3000890700292DDA216821F00301014321608F
:100E4000FFF762FC814641F2883A0EE009688903A7
:100E5000EFE709688901ECE7FFF756FCA0EB090111
:100E6000514502D90320BDE8F0872068696800F089
:100E70000C00B0EB810FEFD1D8F80010404601F024
:100E80000701B14207D90770006800F00700B042BF
:100E900001D00120E7E72878400705D52068E968F8
:100EA00020F4E050084320602878000706D5206829
:100EB000296920F4604040EAC100206000F028F871
:100EC0002168084AC1F30311515CC8400649086013
:100ED00006480068FFF7FAFE0020C4E7003C024025
:100EE00008380240AE3A0008200000201800002018
:100EF0000448054900680968044AC1F38221515C2D
:100F0000C84070472000002008380240BE3A000860
:100F1000154810B5006810F00C02144813D04110A9
:100F2000042A0FD0082A0ED10F4C241F22682368F0
:100F300002F03F025B0207D52068C0F38810A0FBD7
:100F4000010106E0084610BD2168C1F38811A1FB2C
:100F500000010023FFF790F92168C1F30141491C0A
:100F60004900B0FBF1F010BD083802400024F40045
:100F70002DE9F84F04006ED02078DFF84C93C007BD
:100F8000A9F104054AD009F104000168C1F3810107
:100F9000012908D00068C0F3810002280AD1D9F8DD
:100FA0000000400206D52868800337D56068002815
:100FB000E1D033E06068B0F5803F10D0B0F5A02FED
:100FC000286810D020F480302860286820F4802021
:100FD00028606068A8B1FFF797FB06460DE0286817
:100FE00040F48030F4E740F480202860F7E700BF49
:100FF000FFF78AFB801B642873D828688003F7D525
:101000000CE0FFF781FB064605E000BFFFF77CFB25
:10101000801B6428F0D828688003F7D42078DFF894
:10102000AC8280074FF0000A3ED5A748001D01683A
:1010300011F00C0F08D00068C0F3810002280BD11A
:10104000D9F80000400207D42868800716D5E06868
:10105000012800D112E033E1E068B8B10120C8F8FE
:101060000000FFF751FB064605E000BFFFF74CFB11
:10107000801B0228C0D828688007F7D52868216916
:1010800020F0F80040EAC10028600DE0C8F800A098
:10109000FFF73AFB064604E0FFF736FB801B022809
:1010A0001FD828688007F7D42078000722D5864FFC
:1010B00087486169703771B101210160FFF724FB36
:1010C000064604E0FFF720FB801B022809D8386899
:1010D0008007F7D50EE0C0F800A0FFF715FB064625
:1010E00005E082E0FFF710FB801B02287DD83868FE
:1010F0008007F7D42078400768D5DFF8CCB1002707
:101100000BF13C0BDBF80000C0000BD4DBF8001047
:1011100041F08051CBF80010DBF80000012700F00F
:10112000805000906B4E3068C00510D4306840F499
:1011300080703060FFF7E8FA009005E0FFF7E4FA0E
:101140000099401A022850D83068C005F6D55E4E86
:10115000A0686C3601280FD00528306810D020F028
:1011600001003060306820F004003060A068B8B141
:10117000FFF7CAFA00900FE0306840F00100F4E792
:1011800040F004003060F7E7FFF7BEFA0099411A1B
:1011900041F28830814266D830688007F4D50EE08D
:1011A000FFF7B2FA009007E0FFF7AEFA0099411A94
:1011B00041F28830814256D830688007F4D42FB18C
:1011C000DBF8001021F08051CBF80010A069C8B303
:1011D0003D49091D0968C1F3810102294AD002284D
:1011E000504607D0C8F8600000E03CE0FFF78CFAFA
:1011F00004463BE04746C8F86000FFF785FA06461C
:1012000005E000BFFFF780FA801B02282BD8286872
:101210008001F7D4D4E907010843A16A2E4A49089E
:1012200002EB0141626A41EA8211084394F82C10F2
:1012300040EA0161C9F8001001203866FFF764FA3E
:10124000044606E03EE000BFFFF75EFA001B0228FE
:1012500009D828688001F7D534E000BFFFF754FAB9
:10126000001B022802D90320BDE8F88F28688001FE
:10127000F4D427E00128F7D0D9F80000E26900F49F
:10128000800191421CD1226A00F03F01914217D1A6
:1012900047F6C071626A0140B1EB821F10D1A26AA9
:1012A0004FF0FF3300F4403103EB5202B1EB024F39
:1012B00006D194F82C1000F07060B0EB016F01D0F3
:1012C0000120D1E70020CFE7043802400000474268
:1012D000800E4742007000400000FFFF70B5040020
:1012E00009D0606A002540B125616561A56294F866
:1012F000510040B10CE0012070BD6068B0F5827F04
:10130000F4D0E561F2E784F85050204600F044F84C
:10131000022084F851002068016821F0400101603A
:10132000A088218900F4827001F404410843A18956
:1013300001F400610843217C01F002010843217D92
:1013400001F001010843218B01F400710843217F62
:1013500001F03801084394F8201001F0800108439F
:10136000218D01F40051084321680860A06904211F
:1013700001EA104094F8241001F01001084321689C
:1013800048602068C16921F40061C1616565012080
:1013900084F85100002070BD10B586B004461421B9
:1013A0006846FFF72BF813492068884220D112487D
:1013B0000021026842F480520260006800F480500C
:1013C00005900D481438026842F00202026000687D
:1013D00000F002000590382000900220CDE90101C4
:1013E000032003900520049069460448FFF792F813
:1013F00006B010BD003001404438024000040240F5
:101400002DE9F84F044690F8500000270A9E1D462B
:1014100092468B464FF0010901280ED0012084F836
:101420005000FFF771F9804694F851006168012877
:101430000CD0B1F5827F07D102E00220BDE8F88F21
:10144000A16809B9042801D00227C2E0BBF1000F4E
:1014500027D0BAF1000F24D01DB394F8510004280E
:1014600002D0052084F8510000206065C4F838A03F
:10147000E587A587C4F830B0E586A586206460645A
:1014800020680168490603D4016841F04001016009
:10149000E068B0F5006F606805D0E8B3012D46D074
:1014A0007FE0012795E008B1012D39D1206B21683B
:1014B0000088C860206B801C2063E08E401EE086A0
:1014C0002EE02068816889070FD5E18E69B1B9F1F6
:1014D000010F0AD1216B0988C160206B801C206339
:1014E000E08E401EE0864FF0000920688168C90741
:1014F0000CD0E18F51B1C068A16B0880A06B801C3B
:10150000A063E08F401EE0874FF00109FFF7FCF871
:10151000A0EB0800B04200E009E001D3701C50D1FC
:10152000E08E0028CDD1E08F0028CAD13FE0206BAB
:10153000216800780873206B401C2063E08E401EF9
:10154000E0862EE02068816889070FD5E18E69B1B9
:10155000B9F1010F0AD1216B09780173206B401C8E
:101560002063E08E401EE0864FF00009206881680D
:10157000C9070CD0E18F51B1C068A16B0870A06B96
:10158000401CA063E08F401EE0874FF00109FFF789
:10159000BBF8A0EB0800B04202D3701C01D010E0F1
:1015A0007EB1E08E0028CDD1E08F0028CAD142461E
:1015B0003146204601F0FAFB28B101272020606562
:1015C00007E0032705E0A06818B92068C1688068B3
:1015D0000090012084F85100002084F85000384623
:1015E0002CE710B5401EB0F1807F01D3012010BD63
:1015F0004FF0E02460610F21601701F0F5FD00203D
:10160000A06107202061002010BD7047704710B511
:1016100090F83C20012A22D0012280F83C20CA68A0
:101620008C6822F4407222434C6822F48062224388
:101630000C6822F4006222430C6922F48052224397
:101640004C6922F400522243C969002322F48042EB
:101650000A4301684A6480F83C30002010BD022033
:1016600010BD000070B590F83C20012A2CD0012458
:1016700080F83C40022280F83D2003685A689D684B
:1016800022F070060A6832435A60104B02689A4290
:101690000ED0B2F1804F0BD00D4B9A4208D00D4BBB
:1016A0009A4205D00C4B9A4202D00C4B9A4204D17C
:1016B000496825F080031943916080F83D4000217E
:1016C00080F83C10084670BD022070BD000001404B
:1016D0000004004000080040000C004000400140B1
:1016E00010B5040003D094F83D0010B107E00120CC
:1016F00010BD002084F83C00204600F01FF80220B6
:1017000084F83D00211D206801F03CFC012084F894
:10171000460084F83E0084F83F0084F8400084F8D6
:10172000410084F8420084F8430084F8440084F8BF
:10173000450084F83D00002010BD000008B5114AA6
:1017400001681148914207D1016841F0010101602F
:10175000006800F0010009E00C4A914211D10168D3
:1017600041F400310160006800F400300022009074
:1017700011461920FFF7F0FABDE808401920FFF7DD
:10178000DDBA08BD00000140443802400044014079
:1017900090F83D10012901D001207047022180F806
:1017A0003D100168CA6842F00102CA6000680E4933
:1017B00088420ED0B0F1804F0BD00C49884208D03F
:1017C0000B49884205D00B49884202D00A49884219
:1017D00004D1816801F00701062903D0016841F0B6
:1017E000010101600020704700000140000400403A
:1017F00000080040000C00400040014070B5044665
:1018000090F83C000025012817D0012684F83C60A0
:10181000022084F83D002068826822F0770222F4DA
:101820007F4282600868502838D00DDC20284FD0D5
:1018300005DC90B3102811D14AE0022070BD302899
:1018400046D040280AD13BE060282FD070280DD028
:10185000B0F5805F03D0B0F5005F12D0012584F8A9
:101860003D60002084F83C00284670BDCB68D1E97B
:101870000121206801F0DFFB2068816841F07701D9
:1018800009E0CB68D1E90121206801F0D4FB206890
:10189000816841F480418160E1E719E0CA684968E4
:1018A000206801F07DFC5021206806E0CA68496884
:1018B000206801F086FC6021206801F0C6FBCEE7BD
:1018C000CA684968206801F06BFC40212068F4E791
:1018D000226801461046F0E7704770B5044600687C
:1018E00001694FF00005C943890715D4C168C94390
:1018F000890711D4E91E01610120207720688069E1
:101900008007204602D0FFF7E7FF04E000F0C2F8AE
:10191000204600F054F9257720680169C94349073A
:1019200017D4C168C943490713D46FF0040101619A
:10193000022020772068806910F4407F204602D082
:10194000FFF7CAFF04E000F0A5F8204600F037F9E1
:10195000257720680169C943090716D4C168C943BE
:10196000090712D46FF00801016104202077206874
:10197000C0698007204602D0FFF7AEFF04E000F008
:1019800089F8204600F01BF9257720680169C943D2
:10199000C90617D4C168C943C90613D46FF0100132
:1019A0000161082020772068C06910F4407F20463C
:1019B00002D0FFF791FF04E000F06CF8204600F041
:1019C000FEF8257720680169C943C90708D1C168B5
:1019D000C943C90704D1891E0161204600F048F9B6
:1019E00020680169C943090609D4C168C9430906C9
:1019F00005D46FF0800101612046FFF706FE2068E4
:101A00000169C943490609D4C168C943490605D4D7
:101A10006FF040010161204600F02BF92068016958
:101A2000C94389060BD4C168C943890607D46FF03E
:101A3000200101612046BDE87040FFF7E7BD70BDA1
:101A400010B586B0044614216846FEF7D7FC0E494F
:101A50002068884216D10D480021026842F0100229
:101A60000260006800F0100005904FF400700090D4
:101A70000220CDE901010120CDE9031069460448A7
:101A8000FEF748FD06B010BD0000014030380240AE
:101A900000100240704770B5044690F83C000026E4
:101AA0000D4601280FD0012084F83C006AB1042AB9
:101AB0001DD0082A2FD00C2A3FD00126002084F800
:101AC0003C00304670BD022070BD206801F0C6FAAF
:101AD0002068816941F0080181612068816921F0F5
:101AE00004018161206881692A69114311E020683D
:101AF00001F0DCFA2068816941F4006181612068AD
:101B0000816921F480618161206881692A6941EAE3
:101B100002218161D2E7206801F0F4FA2068C169EE
:101B200041F00801C1612068C16921F00401C1616F
:101B30002068C1692A69114311E0206801F00EFB99
:101B40002068C16941F40061C1612068C16921F464
:101B50008061C1612068C1692A6941EA0221C161CD
:101B6000ACE710B5040003D094F83D0010B107E0D5
:101B7000012010BD002084F83C00204600F01EF833
:101B8000022084F83D00211D206801F0FBF90120AE
:101B900084F8460084F83E0084F83F0084F8400052
:101BA00084F8410084F8420084F8430084F844003B
:101BB00084F8450084F83D00002010BD7047704750
:101BC00010B50446022249B104290ED0082913D0C9
:101BD00094F84100012816D0012010BD94F83E0071
:101BE0000128F9D184F83E200FE094F83F00012845
:101BF000F2D184F83F2008E094F840000128EBD1AE
:101C000084F8402001E084F841200122206801F09E
:101C100005FA12492068884203D1426C42F400421E
:101C20004264206888420ED0B0F1804F0BD00C493E
:101C3000884208D00B49884205D00B49884202D01F
:101C40000A49884204D1816801F00701062903D0BE
:101C5000016841F001010160002010BD0000014059
:101C60000004004000080040000C0040004001401B
:101C700070477047FEE700000148FEF74DBD0000C9
:101C80005400002038B5806B002190F83D202B4B8C
:101C900046F2A8141B68B3FBF4F3C3EBC30303EBD6
:101CA000830300933BB15B1E009303681B689B0595
:101CB00005D5009BF6E7036C43F020030364436BF8
:101CC00003B1D963836B03B1D96303681C6824F43F
:101CD00080641C604185436B03B11965836B03B15C
:101CE000196503681C6824F001041C6090F83D40ED
:101CF0002023602C0BD0282434EA02020FD080F875
:101D00003D3080F83E1000BFFEF71EFE38BD80F863
:101D10003D3080F83E100164FEF7FCFC38BD0268DF
:101D2000136843F0010313600268136843F480638F
:101D30001360016380F83D40E6E7000020000020CA
:101D400070B5044690F83D0094F83E10102901D07B
:101D5000402906D1222804D121680A6822F40062B1
:101D60000A60282131EA00024FF000054FF02006FA
:101D700026D021684968090505D4602803D084F875
:101D80003D6084F83E50256320684168090537D5D9
:101D9000416821F400614160606B90F835203C4956
:101DA000012A11D00165606BFEF78DFB38B3206806
:101DB000016821F00101016084F83D60606B1CE066
:101DC000256384F83D10DFE7A06B0165A06BFEF78B
:101DD0007AFBA0B120684169C943490605D400696E
:101DE000616A0870606A401C60622068016821F0C6
:101DF0000101016084F83D60A06B016D884710E02F
:101E000094F83D10602910D04169C943490605D4B2
:101E10000069616A0870606A401C60622046FEF7D3
:101E200093FD206CC1071CD115E084F83D6025644A
:101E30004169C943490605D40069616A0870606A4E
:101E4000401C60622068016821F0010101602046A9
:101E5000FEF760FCE5E7810703D4410701D40007E2
:101E600004D52068416821F4E061416094F83D00A8
:101E7000216C49070BD5282809D10648E062256363
:101E800084F83D6084F83E502046FEF723FE70BD86
:101E9000851C00080000FFFF01684A69D243520513
:101EA0000FD46FF480624A61002140F8301F202275
:101EB00042738173026942F00402026101730120DE
:101EC00070470020704710B5C26A438D0168042B2B
:101ED00006D0438D032B08D0438D022B1DD012E07A
:101EE0004A6822F480624A600CE04B6823F4806305
:101EF0004B60042A06D0022A04D001680A6822F442
:101F000080620A6001680969426A1170416A491C6D
:101F10004162418D491E418510BD012A30D0102AF1
:101F20002ED0042A30D0022A2ED00A6842F4007241
:101F30000A6001680969426A1170416A491C41627C
:101F4000428D521E4285026812690A70416A491C1C
:101F50004162418D491E418501684A6822F4407200
:101F60004A60202180F83D1090F83E200021402A50
:101F700080F83E100CD012210163FEF7ACFD10BDBD
:101F80000A6822F48062D3E70A6842F48062CFE7ED
:101F90000163FEF739FE10BD38B590F83D102229D7
:101FA0000FD1418D03290DD901680969426A117069
:101FB000416A491C4162418D491E4185418D032979
:101FC00006D038BDC26A022A02D0012906D029B142
:101FD0000068416821F48061416038BD274946F2BC
:101FE000A81300220968B1FBF3F101EB8101009114
:101FF00001682023009C641E009422D00C68A40574
:10200000F8D40C6824F480640C6001684C6824F4F3
:10201000E0644C6001680969446A2170416A491CA6
:102020004162418D491E418580F83D3090F83E1057
:1020300080F83E2040291DD012210163FEF74BFDA0
:1020400038BD046C44F0200404644C6824F4E0645B
:102050004C6001680969446A2170416A491C416207
:10206000418D491E418580F83D3080F83E20FEF7C5
:102070006BFC38BD0263FEF7C7FD38BD20000020B1
:10208000F8B50446C06A1E460D461746082807D014
:10209000012805D010F5803F02D0206B122804D112
:1020A0002068016841F480710160134600224FF0FE
:1020B00001112046009600F0E9FA40B1206800685E
:1020C000C00502D54FF4007020640320F8BD2069DC
:1020D000B0F5804F0ED00620216800EAD51040F000
:1020E000F000086133463A460B49204600F002FBF7
:1020F00078B902E005F0FE0000E0E8B2216808616E
:10210000054933463A46891F204600F0F3FA002875
:10211000DCD00120F8BD00000800010010B5C26A43
:1021200090F83D1021290BD1418D51B1416A0268CF
:1021300009781161416A491C4162418D491E4185FE
:1021400010BD20230021082A13D0202A11D012F517
:10215000803F0ED00268546824F4E0645460112279
:10216000026380F83E1080F83D3000BFFEF7B4FCFB
:1021700010BD0268546824F4E06454600268146876
:1021800044F400741460016380F83D3090F83E2000
:1021900080F83E10402AE9D1FEF737FD10BD00005F
:1021A00010B590F83D1090F83E30C26A048DB4B17D
:1021B000212903D0402B11D122290FD1418DE1B328
:1021C00090F83E10402942D0416A026809781161B6
:1021D000416A491C4162418D491E418510BD21293A
:1021E000E8D120230021082A13D0202A11D012F58B
:1021F000803F0ED00268546824F4E06454601122D9
:10220000026380F83E1080F83D3000BFFEF764FCAA
:1022100010BD0268546824F4E064546002681468D5
:1022200044F400741460016380F83D3090F83E205F
:1022300080F83E10402AE9D100E002E0FEF7E5FC1C
:1022400010BD0068416821F48061416010BDBDE8A7
:10225000104000F0D3B8000078B590F83E50C26A44
:10226000036B90F83D6000240168222E7AD1066D40
:102270000EB9402D76D0056D1DB90569B5F5404FF5
:1022800009D0458D05B3468D384D012E0ED0438DB6
:10229000022B3AD05DE04A698A6900920A6842F4EA
:1022A00080720A60016D491C016578BDAA4213D194
:1022B0000A6822F480620A6001684A68120503D540
:1022C0000A6822F4806216E04A698A6900920A6804
:1022D00042F400720A6039E0082A10D0202A0ED099
:1022E000122B0AD0042A03D0022A01D0102AE7D1E7
:1022F0000A6842F480620A6024E0012AE0D00A6899
:1023000022F480620A600168DEE7042A21D0022AF2
:102310001FD0102A1DD00B6823F480630B60016866
:102320000B6843F400630B6001684B681B0509D51B
:10233000AA4212D0012A10D0082A0ED0102A0CD09E
:10234000202A0AD001684A6989690091046578BD2C
:1023500008E00B6843F48063E5E74A6842F4805282
:102360004A60EFE7486988690090F0E70000FFFFE6
:1023700090F83E10402910D00169B1F5804F19D076
:10238000016DA9B3016D012910D1416C5FF0F1021B
:1023900001F4407142EAD11106E0016D0029416C5F
:1023A00005D0C9B241F0010100680161704701F038
:1023B000FE01F9E790F83D102129416C09D0C9B21E
:1023C00041F0010102681161416B29B1C96B49B942
:1023D00002E001F0FE01F5E7816B0029E6D0C96B50
:1023E0000029E3D00068416841F400614160704712
:1023F000FFE7416CF02201F44071CBE710B590F893
:102400003D10026D22B3026D012A2FD0026D022A07
:102410001DD122292FD0428D0AB1212933D0428DDE
:10242000002A14D1212912D101684A6822F4E062FD
:102430004A6001680A6842F400720A600021016380
:10244000202280F83D2080F83E10FEF7DEFB10BD14
:10245000C16C0129816C02D0C1F3072108E0026838
:10246000C9B21161016D891C016510BD816CC9B2D1
:102470000268116104E001680A6842F480720A602F
:10248000016D491CF0E7416A026809781161416AEF
:10249000491C4162418D491E418510BD38B50C462D
:1024A00090F83D2000212825954302680B4605D071
:1024B00051699169009180F83C3038BD556825F428
:1024C00080655560E243540700D50121120601D50D
:1024D000828900E0028B80F83C3092B2FEF71BF953
:1024E00038BD0000F8B590F83D60044600684168CA
:1024F00021F4E06141602068002541690091016894
:1025000041F0010101602068016821F480610160EF
:1025100020684168090520D5474F222E48D02A2E31
:1025200046D0616B096849686185618D19B1216C7C
:1025300041F004012164416821F400614160606B55
:10254000FDF7D3FF012808D0606B0765606BFDF7CE
:10255000BAFF10B1606B016D8847608D08B32068C9
:102560004169C943490708D40069616A0870606A13
:10257000401C6062608D401E608520684169C943CF
:10258000490608D40069616A0870606A401C60628C
:10259000608D401E6085608D18B1206C40F0040095
:1025A0002064206C00B32046BDE8F840FFF7C8BBAC
:1025B000A16B096849686185618D19B1216C41F091
:1025C00004012164416821F400614160A06BFDF7C2
:1025D0008CFF0128C1D0A06B0765A06BFDF773FFCE
:1025E0000028BAD0A06BB6E72A2E06D12563282092
:1025F00084F83D002046FEF745FB94F83D1020206E
:1026000028290DD0216B222901D0222E07D1256344
:1026100084F83D0084F83E502046FEF733FBF8BDB9
:102620000649E162256384F83D0084F83E50204667
:10263000FEF750FAF8BD0000851C00080000FFFFFF
:1026400070B516460D4604460DE02046FFF724FC03
:1026500008B1012070BD681C05D0FEF755F8801B3D
:10266000A84207D835B120684069C0434007ECD480
:10267000002070BD002044F8300F20216173A0734A
:10268000216941F0200121612073E2E72DE9F04743
:102690001E4690460D460446C1F30747DDF82090DC
:1026A00008E0701C06D0FEF72FF8A0EB0900B0423E
:1026B0000FD876B12068012F18D0806925EA000074
:1026C0000004000C14D000214145EAD00020BDE8F0
:1026D000F087002044F8300F20216173A073216936
:1026E00041F02001216120730120F0E74069E5E716
:1026F0000121E9E72DE9F0479A4691460E46044646
:1027000000254FF02008C1F3074725E02068406905
:10271000C043400514D42068016841F40071016091
:1027200021686FF480604861256384F83D8084F8F7
:102730003E50206C40F00400206484F83C501FE0C0
:10274000B9F1FF3F08D0FDF7DFFFA0EB0A014945D3
:102750000CD8B9F1000F09D02068012F13D080697F
:1027600026EA00000004000C0BD0CFE744F8305FED
:1027700084F80D80A573206940F020002061257346
:102780000120BDE8F0874069EAE770B516460D46BE
:1027900004460DE02046FFF77FFB08B1012070BD25
:1027A000681C05D0FDF7B0FF801BA84207D835B1E3
:1027B00020684069C0430006ECD4002070BD0020B2
:1027C00044F8300F20216173A073216941F020018A
:1027D00021612073E2E710B5142000F059F880075A
:1027E00005D10321BDE81040142000F073B810BDDE
:1027F0007CB50446002529460D2000F001F9932000
:1028000020702020607001A8234600900222194603
:102810000C2000F06BF8010009D1225C401C5540EF
:10282000C0B20428F9D3205CA84200D00221084697
:102830007CBD70B50C46054600F02AF820EA04017C
:102840002846BDE8704000F0DBB810B500F03EF857
:102850008D212A2000F0D4F83E212B2000F0D0F862
:102860001E212D2000F0CCF800212C2000F0C8F80B
:102870007021262000F0C4F84021152000F0C0F897
:102880003D21112000F0BCF8BDE81040FFF7A3BFC8
:102890007E2101EA400040F0800000F057BA7CB58C
:1028A0000C46054607210D2000F0AAF8257001A866
:1028B00023460090012219460C2000F017F818B9A1
:1028C000BDF80410102900D002207CBD0F2101208A
:1028D00000F096B870B50C460546FFF7D9FF40EA00
:1028E00004012846BDE8704000F08AB82DE9FF5F7A
:1028F00000270226DDF838A015468B468146B846EB
:102900000C2805D0B9F10E0F05D11227102001E0D7
:1029100077273020804647F08001022000F070F8D1
:1029200080210420FFF785FF80210A20FFF7D2FFD6
:102930000021012000F064F8002406E01BF80410D8
:10294000092000F05DF8641CA4B2AC42F6D34946FD
:10295000012000F055F8B9F10C0F03D180210D20B2
:10296000FFF7B8FF4FF4FA650420FFF791FF6D1EE3
:102970002D0404462D0C04D0E00702D114EA080F00
:10298000F2D080210D20FFF754FF35B10620FFF76C
:102990007FFF10F01B0F04D0022604B03046BDE8C4
:1029A000F09F00263C40E00700D00126B9F10C0F53
:1029B000F3D10A20FFF76CFF04460C20FFF768FFF5
:1029C00010F007004FEAC40104D008390844AAF8FF
:1029D000000001E0AAF8001024B1102C04D9102442
:1029E000002503E00124FBE7002506E00920FFF7AE
:1029F0004FFF039948556D1CADB2A542F6D3CCE705
:102A00007E2202EA400000F0B9B900002DE9F0434F
:102A100087B014216846FDF7F1FC2F4800240168B7
:102A200041F080010160016801F0800105910168B9
:102A300041F001010160016801F0010105910168A7
:102A400041F010010160016801F010010591016879
:102A500041F008010160016801F008010591016879
:102A600041F0020101600068DFF8708000F00200B0
:102A700005900022F0214046FDF741FEDFF860900E
:102A80004FF42257002239464846FDF738FE48F2F7
:102A90000F0001268DE8510069464046FDF73AFDDA
:102AA000F020CDE90006022569464046CDE9024501
:102AB000FDF730FDCDE9007669464846CDE902458F
:102AC000FDF728FDCDE90054694648460295FDF71B
:102AD00021FD07B0BDE8F08330380240000002401D
:102AE000000C02400F4810B50D4901604FF482718F
:102AF000416000218160C1604FF400720161C0E952
:102B000005120822C0E90721416281620A21C162DF
:102B1000FEF7E4FB002801D072B6FEE710BD00000E
:102B200000300140A800002010B596B000240F949A
:102B300010941194129413941C2108A81494FDF776
:102B40005DFC20216846FDF759FC284826490160B4
:102B50004FF47A71C0E90114C0E90314446184613F
:102B6000FEF7BEFD08B172B6FEE74FF480500F903D
:102B70000FA91E48FEF742FE08B172B6FEE71B48D9
:102B8000FEF7EFFF08B172B6FEE7139413A91748DA
:102B90001494FEF767FD08B172B6FEE76020CDE938
:102BA00008040A940B940C940D94002208A90F4871
:102BB0000E94FEF770FF08B172B6FEE700944FF472
:102BC0000050CDE9044002940194039469460748FB
:102BD0000794FEF71CFD08B172B6FEE70348FEF746
:102BE0002FFF16B010BD00000000014000010020C2
:102BF000FEE7FEE77047000070B53E492620FFF76C
:102C00004EFE002874D13B48FFF7F2FD00286FD13B
:102C10003848394C4FF400654078932839D000F09B
:102C200025FC0021084600F02DFC34A000F076FCC5
:102C3000012229462046FDF762FD322000F054FBB8
:102C4000002229462046FDF75AFD322000F04CFBB9
:102C5000012229462046FDF752FDC82000F044FB22
:102C6000002229462046FDF74AFD0122294620463A
:102C7000FDF745FD4FF4877000F036FB0022294632
:102C80002046FDF73CFDBDE870404FF47A7000F03F
:102C90002BBB00F0EBFB0021084600F0F3FB1BA070
:102CA00000F03CFC0021012000F0ECFB1BA000F038
:102CB00035FC012229462046FDF721FDC82000F001
:102CC00013FB002229462046FDF719FD4FF49660BC
:102CD000FDF70EFC07494B20903909684863012233
:102CE00051032046FDF70BFDBDE8704000F09ABE91
:102CF00070BD000090010020000C0240414343459C
:102D000053532044454E4945440000004143434548
:102D10005353204752414E544544000057454C43BD
:102D20004F4D4520484F4D45000000000EB5012392
:102D30008DF804000A20009002AA01A90248FEF7BB
:102D40005FFB9DF808000EBDA800002070B50A4D7D
:102D50000446002280212846FDF7D1FC2046FFF7DB
:102D6000E5FF0020FFF7E2FF04460122802128460C
:102D7000FDF7C5FC204670BD000C024070B50A4C42
:102D80000E460546002280212046FDF7B8FC284665
:102D9000FFF7CCFF3046FFF7C9FF2046BDE8704083
:102DA00001228021FDF7ABBC000C024038B504467F
:102DB0001248134B0068B0FBF3F04FF47A7358439A
:102DC00000906068B0F5827F0DD10B460092002222
:102DD0008021204600F016F870B1606D40F02000B0
:102DE0006065032038BD009830B1401E0090206817
:102DF0008068C0430006F6D5002038BD20000020C2
:102E000000366E012DE9F8431E4691468846044679
:102E1000089DFDF779FC401B351AFDF775FC074648
:102E200025480068C0F3CB30684338E0701C37D0C9
:102E3000FDF76AFCC01BA84203D215B1009860B32D
:102E40002CE02068416821F0E00141606068B0F545
:102E5000827F0BD1A068B0F5004F02D0B0F5806F33
:102E600004D12068016821F040010160A06AB0F53A
:102E7000005F09D12068016821F4005101602068D9
:102E8000016841F400510160012084F851000020E4
:102E900084F850000320BDE8F8830025401E009010
:102EA0002068816838EA010004D000214945BDD17D
:102EB0000020F0E70121F9E7200000207047FDF72E
:102EC000E3BE000030B593B030216846FDF796FAB6
:102ED00014210CA8FDF792FA1D480025016841F065
:102EE00080510160006800F080501190194801681D
:102EF00041F4404101600068022400F44040119018
:102F000001200090000401908001CDE906400420DA
:102F100008906420CDE9090403200B906846FEF771
:102F200027F808B172B6FEE70CA90F2081E831003E
:102F30004FF4A0500F904FF48050109003210CA834
:102F4000FDF73CFF002801D072B6FEE713B030BD9C
:102F500040380240007000400248016841F47001AE
:102F60000160704788ED00E010B50448FEF7B5FC3D
:102F7000BDE810400248FEF7B0BC00000001002090
:102F800048010020F0B502681D4B1E4C9F031E4DEA
:102F90001E4E984207D0B84205D0A04203D0A842A6
:102FA00001D0B04204D122F0700C4A6842EA0C020F
:102FB000984210D0B8420ED0A0420CD0A8420AD0FD
:102FC000B04208D0124CA04205D0124CA04202D010
:102FD000114CA04203D122F44074CA6822434C69C8
:102FE00022F08002224302608A68C2620A6882621A
:102FF000984201D10969016301214161F0BD0000DE
:10300000000001400004004000080040000C0040A7
:1030100000400140004401400048014010B501F06B
:103020001F030121046A99408C430462016A9A409B
:103030001143016210BD10B5846842EA032224F4F2
:103040007F440A432243826010BD826822F07002EE
:103050000A4342F0070181607047000030B5026A00
:1030600022F001020262026A4368846924F0730557
:103070000C682C4322F002058A682A430A4DA842B4
:103080000BD122F00805CA6823F440732A434D6926
:1030900022F004021D438B692B434360846149681D
:1030A0004163026230BD00000000014030B5026A99
:1030B00022F010020262026A436884690D6824F4F7
:1030C000E64444EA05248D6822F0200242EA051213
:1030D0000B4DA8420ED1CD6822F0800242EA0512C3
:1030E0004D6923F4406343EA85038D6922F0400271
:1030F00043EA85034360846149688163026230BDAD
:103100000000014030B5026A22F480720262036A54
:103110004268C46923F4007324F073050C682C43DF
:103120008D6843EA05230C4DA8420ED1CD6823F4E7
:10313000006343EA05234D6922F4405242EA051236
:103140008D6923F4806342EA05124260C4614968D4
:10315000C163036230BD00000000014030B5026A67
:1031600022F480520262046A4268C3690D6823F443
:10317000E64343EA05238D6824F4005444EA053409
:10318000064DA84204D14D6922F4804242EA8512DC
:103190004260C36149680164046230BD00000140BF
:1031A00010B5036A046A24F001040462846924F0FF
:1031B000F00444EA021423F00A020A438461026222
:1031C00010BD10B5036A23F0100303628369046A1B
:1031D00023F4704343EA023224F0A00343EA0111CE
:1031E0008261016210BDFEE70907090E002804DBB9
:1031F00000F1E02080F80014704700F00F0000F1AB
:10320000E02080F8141D704770B500F02FF9002100
:10321000084600F037F921A000F080F9102123487A
:1032200000F09EFA2149102220312048FDF79BF83A
:103230001E4C002590B100F019F90121002000F08A
:1032400021F91BA000F06AF925606560A560E560C2
:10325000BDE870404FF4FA60FDF74AB900F006F996
:103260000021084600F00EF915A000F057F94FF4C0
:103270009660FDF73DF925606560A56010210B485B
:10328000E56000F06DFA94E80F0020C420C420C46B
:1032900044F8145B84E80F0070BD0000435552529F
:1032A000454E5420504153533A0000002400002062
:1032B0004143434553532044454E49454421000072
:1032C0004348414E474520504153533A20000000A7
:1032D00004480021026851620068416A0A29FCD34F
:1032E000704700004801002010B50446002302E0AA
:1032F000FFF7EEFF5B1CA342FADB10BD70B500F0D8
:10330000B5F80021084600F0BDF835A000F006F938
:103310001021384800F024FA364800251EC840F82D
:10332000105C40F80C5C40F8085C40F8045C80E8F5
:103330001E00102200F11001FDF715F82E4C002898
:103340002ED0E068401CE06000F090F801210020E1
:1033500000F098F829A000F0E1F80021012000F029
:1033600091F82AA000F0DAF8E068052817D14FF4A8
:103370007A70FDF7BDF800F079F80021084600F0FA
:1033800081F827A000F0CAF80021012000F07AF8A7
:1033900028A000F0C3F82B48FFF7A6FFE56070BD3A
:1033A00000F064F80421002000F06CF826A000F082
:1033B000B5F80021012000F065F826A000F0AEF875
:1033C0000C494B20DC31E560096848630122510358
:1033D0002548FDF794F9BDE8704000F023BB0000DC
:1033E000454E5445522050415353574F52443A2072
:1033F000000000002400002000000020414343455D
:1034000053532044454E494544210000504C45410A
:1034100053452054525920414741494E0000000075
:103420004E48415020534149203E2035204C414ECA
:10343000000000005741495420464F522033204D90
:10344000494E530020BF0200434F5252454354217E
:10345000000000002D2D2D20554E4C4F434B454470
:10346000202D2D2D00000000000C024010B5802002
:1034700000F014F80024202000F030F8641C462CE2
:10348000F9DB10BD10B1012805D102E041F0800147
:1034900001E041F0C001C8B2AFF300801CB500F0FC
:1034A000F00141F00C028DF8042041F00801000108
:1034B0008DF8051040F00C018DF8061040F0080062
:1034C0008DF8070064200090042301AA4E210248D1
:1034D000FDF704FB1CBD0000540000201CB500F0EB
:1034E000F00141F00D028DF8042041F009010001C6
:1034F0008DF8051040F00D018DF8061040F0090020
:103500008DF8070064200090042301AA4E21024890
:10351000FDF7E4FA1CBD00005400002010B504467D
:1035200002E0641CFFF7DAFF20780028F9D110BD13
:10353000FDF7B2FBFFF7C6FCFFF768FAFFF7F4FAF6
:10354000684867490024016042F21071C0E9011423
:10355000491EC0E903148461FEF7C2F808B172B6CF
:10356000FEE7FFF7BFFA5F485F49F43801605F4943
:10357000C0E901144FF48041C0E903414461846112
:10358000C4610462FDF7E2F908B172B6FEE755487E
:10359000FEF7FEF8534800214838FEF711FBFFF70D
:1035A00054F9FFF763FF00210846FFF76BFF50A0B7
:1035B000FFF7B4FF02210120FFF764FF50A0FFF7DF
:1035C000ADFF4FF4FA60FCF793FFFFF74FFF0021C8
:1035D0000846FFF757FF4EA0FFF7A0FF002101208C
:1035E000FFF750FF4E4DA04610212C606C60AC6080
:1035F0002846EC6000F0B4F895E80F0010C5494E7D
:1036000010C54FF0010910C545F8144BA6F1100480
:1036100085E80F00C4F80890C4F80090C4F804903E
:10362000FFF724FF01210020FFF72CFF3EA0FFF74A
:1036300075FF00210120FFF725FF3FA0FFF76EFF78
:103640000025052700F0AAF8705523280FD001287F
:1036500008D039460120FFF715FF705DFFF73EFFE8
:103660006D1C7F1C6420FCF743FF042DEADBFFF791
:10367000FDFE022232A12B48FCF775FE90B1032219
:1036800030A12848FCF76FFEF0B104222EA1254896
:10369000FCF769FEE0B11DE0FFF730FE2846FCF7BD
:1036A00027FF01E04FF4966520680028F4D111E06F
:1036B00000210846FFF7E6FE25A0FFF72FFFFFF7E2
:1036C0009BFA0A20FCF714FF60680028F0D101E0A3
:1036D000FFF79AFD0A20C4F81080FCF709FF99E76C
:1036E000004401404801002000540040A086010031
:1036F00057454C434F4D4520544F205549540000E9
:10370000434520464143554C5459205E2D5E0000F0
:10371000434149204D41544B4841553A2000000057
:1037200024000020100000202A2A2A57454C434F2D
:103730004D452A2A2A0000004D4F44453A200000FA
:103740002A2300002A2A23002A2A2A230000000014
:10375000494E5345525420494420434152440000AD
:1037600070B50E4600240C4D12E000BF00F016F8B4
:10377000285523280ED0012807D021460120FFF725
:1037800081FE285DFFF7AAFE641C6420FCF7B0FEF2
:10379000B442EBDB70BD00002400002010B5A04C4B
:1037A000002280212046FCF7AAFF0122402120466A
:1037B000FCF7A5FF012220212046FCF7A0FF0122F3
:1037C00010212046FCF79BFF08212046FCF792FFC2
:1037D00000287CD004212046FCF78CFF002877D0FD
:1037E00002212046FCF786FF002872D001212046E6
:1037F000FCF780FF00286DD0012280212046FCF7D5
:103800007EFF002240212046FCF779FF0122202183
:103810002046FCF774FF012210212046FCF76FFFC1
:1038200008212046FCF766FF002876D004212046B8
:10383000FCF760FF002871D002212046FCF75AFFF8
:1038400000286CD001212046FCF754FF002867D0E7
:10385000012280212046FCF752FF01224021204610
:10386000FCF74DFF002220212046FCF748FF0122F3
:1038700010212046FCF743FF08212046FCF73AFFC1
:1038800000286ED004212046FCF734FF002869D0C0
:1038900002212046FCF72EFF002874D0012120468B
:1038A000FCF728FF00286FD0012280212046FCF77A
:1038B00026FF012240212046FCF721FF0122202182
:1038C0002046FCF71CFF00221021204603E028E0E0
:1038D0002FE036E03DE0FCF712FF08212046FCF720
:1038E00009FF002871D004212046FCF703FF0028BF
:1038F0006CD002212046FCF7FDFE002867D0012194
:103900002046FCF7F7FE002806D101212046FCF7EF
:10391000F1FE0028F9D0442010BD24E02BE034E073
:103920003BE008212046FCF7E5FE0028F9D03120D5
:10393000F2E704212046FCF7DDFE0028F9D0322012
:10394000EAE702212046FCF7D5FE0028F9D0332013
:10395000E2E701212046FCF7CDFE0028F9D0412006
:10396000DAE722E029E008212046FCF7C3FE002820
:10397000F9D03420D0E704212046FCF7BBFE002814
:10398000F9D03520C8E723E02AE002212046FCF7E1
:10399000B1FE0028F9D03620BEE701212046FCF711
:1039A000A9FE0028F9D04220B6E708212046FCF7FE
:1039B000A1FE0028F9D03720AEE704212046FCF70D
:1039C00099FE0028F9D03820A6E711E018E01FE0A2
:1039D00002212046FCF78EFE0028F9D039209BE713
:1039E00001212046FCF786FE0028F9D0432093E70A
:1039F00008212046FCF77EFE0028F9D02A208BE71C
:103A000004212046FCF776FE0028F9D0302083E719
:103A100002212046FCF76EFE0028F9D023207BE728
:103A20000000024010B5144C02212046FCF762FE53
:103A30000128F9D1410300222046FCF760FE0F491E
:103A4000AF2009684863FFF711FD02210020FFF74E
:103A500019FD0BA0FFF762FD01210846FFF712FDDB
:103A60000BA0FFF75BFD4FF49660FCF741FD0C499E
:103A700000200860486010BD000C024000010020DA
:103A8000474F4F4420425945205E2D5E0000000004
:103A900053454520594F5520414741494E000000AC
:103AA000000000204FF04070E1EE100A7047000067
:103AB00000000000000001020304060708090000DE
:103AC0000000010203040000E83A000800000020A2
:103AD00024000000D40100080C3B00082400002052
:103AE000DC070000F00100080100000001000000F8
:103AF00001000000000000000000000001000000C4
:0C3B000010000000000000000024F40091
:040000050800019955
:00000001FF
